:1000000080315528303430347E1480314E01161E34
:100010000A280B2813280C1E0E280F2813289531A8
:10002000AD25803153280B1F162817285328191F78
:100030001A281B2826280F1F1E281F2826284101A2
:100040006D088A006C080A0080315328991F2928FE
:100050002A2835288F1F2D282E28352841016B0886
:100060008A006A080A0080315328191E3828392866
:1000700044280F1E3C283D284428420162088A007B
:1000800061080A0080315328991E472848285328C0
:100090008F1E4B284C285328420160088A005F08B5
:1000A0000A00803153287E10090080315728410111
:1000B000803102208031EE00803103208031EF005A
:1000C0004130840097308500483086000130870039
:1000D0001130953190258031FC0151308400003081
:1000E00085001D3095318A258031A0308400003094
:1000F0008500463095318A258031203084000130DA
:100100008500283095318A258031A0308400013067
:100110008500403095318A258031203084000230BE
:100120008500503095318A258031A030840002301E
:100130008500503095318A2580312030840003308D
:100140008500503095318A2580317E104001813103
:1001500087294001B70067290230AF002F08EC0063
:1001600086293708AF002F08EA000330AF002F08B8
:10017000EC0086293A303702031CBF28C028C92862
:1001800037085F39C93EB100FF3003180030B200B4
:10019000D0283708D03EB100FF3003180030B2003D
:1001A0003108AF002F08EB000430AF002F08EC003F
:1001B00086293A303702031CDE28DF28E828370872
:1001C0005F39C93EB300FF3003180030B400EF2898
:1001D0003708D03EB300FF3003180030B4006B087E
:1001E000AF000330AF35FF3E031DF2282F35330734
:1001F000B0003008EB000530AF002F08EC00862976
:100200003A303702031C052906290F2937085F39C0
:10021000C93ED500FF3003180030D6001629370834
:10022000D03ED500FF3003180030D6000130EB027D
:100230006B08031D1C291D291F29EC018629063086
:10024000AF002F08EC0086293A303702031C292919
:100250002A29332937085F39C93EB500FF30031812
:100260000030B6003A293708D03EB500FF300318F9
:100270000030B6005608B0005508AF00AF0EB00E03
:10028000F030B0052F080F39B004F030AF05350855
:100290002F07D5003608303DD6005508AF002F088F
:1002A000AA006A088F313427803101304001EB0207
:1002B0006B08031D5C295D29FB281D295B3037066F
:1002C000031D632964298629EC01EC0A86296C0840
:1002D000AF00B0013008003A03196F295E292F08DA
:1002E000003A03195E29013A0319AC28033A0319AD
:1002F000B128013A0319BA28073A0319D928013A53
:1003000003190029033A031924295E2908009731AB
:10031000D22781312030F1000330F200503040010B
:10032000CF004F08F30088316D2081318B170B17F8
:100330008531202581319531D12581319431CC24ED
:100340008131013A031DA529A629312A95312B2592
:100350008131013A031DAD29AE29C6294E018C1207
:1003600088313A2081318B31B0238131883153205B
:1003700081318C31132481318731C62781319E2907
:1003800096312F2681318031A92081318831F520A5
:100390008131003A031DCD29CE29C0290E2A003013
:1003A000840090308500013F8A00003F0A008131BF
:1003B0004001CF005908203E8600023087004F08D8
:1003C00081005908203E8600023087000D3001066A
:1003D0000319EB29EC29FD295908203E860002303B
:1003E00087000A3001060319F629F729FD294F3045
:1003F0005906031DFC29FD290A2A5908203E8600BA
:100400000230870081012030823161228131400138
:10041000D9010E2A0130CF004F08D90706308400D9
:1004200090308500013F8A00003F0A008231003A87
:10043000031D1B2A1C2ACF299E2996312F26813184
:100440004001CF004F08D0005008CF004F08F10006
:100450000230840090308500013F8A00003F0A008E
:1004600082318831F5208131003A031D382A392A3A
:100470001D2A502A0030840090308500013F8A00F8
:10048000003F0A0082314001CF004F08F6000030E3
:10049000840098308500013F8A00003F0A008231C5
:1004A0000630840090308500013F8A00003F0A003A
:1004B0008231003A031D5D2A5E2A3A2A9E29803144
:1004C0005528FB007B08F1000230F2008831212022
:1004D000823171080907F8007808FA005B30F800EB
:1004E0007808F6000030840098308500013F8A00CB
:1004F000003F0A00823140016D080F39483E8600F6
:10050000013087000108F8007808F6000030840008
:1005100098308500013F8A00003F0A008231013097
:10052000F80078084001ED075330F8007808F6002D
:100530000030840098308500013F8A00003F0A00A7
:1005400082317A08F8000430F836890BA42A78083A
:100550000F39483E8600013087000108F90079080C
:10056000F6000030840098308500013F8A00003F8B
:100570000A0082317A080F39483E86000130870030
:100580000108F8007808F6000030840098308500F3
:10059000013F8A00003F0A008231062B7B0886005B
:1005A000023087000108F8000430F836890BD52A9C
:1005B00078080F39483E8600013087000108F900AD
:1005C0007908F6000030840098308500013F8A00E9
:1005D000003F0A0082317B08860002308700010854
:1005E0000F39483E8600013087000108F80078087E
:1005F000F6000030840098308500013F8A00003FFB
:100600000A0083310130F8007808FB077B08860078
:10061000023087000108031D0E2B0F2BCE2A5D3000
:10062000F8007808F6000030840098308500013F1B
:100630008A00003F0A00833108004001A0005B30BF
:10064000F9007908F6000030840098308500013FF9
:100650008A00003F0A00833140016D080F39483E8F
:100660008600013087000108F9007908F6000030A3
:10067000840098308500013F8A00003F0A008331E2
:100680000130F90079084001ED072008F9007908E8
:10069000F6000030840098308500013F8A00003F5A
:1006A0000A0083317808F1000030F20088312120FF
:1006B00083317108F9007208FA000430FA36F90C37
:1006C000890B5E2B79080F39483E86000130870080
:1006D0000108FB007B08F60000308400983085009C
:1006E000013F8A00003F0A0083317808F1000030A2
:1006F000F20088312120833171080F39483E86008D
:10070000013087000108F9007908F6000030840004
:1007100098308500013F8A00003F0A008331A42BF6
:100720007808860087010108F9007908F600003092
:10073000840098308500013F8A00003F0A00833121
:100740000130F9007908F807780886008701010868
:10075000031DAB2BAC2B902B5D30F9007908F60014
:100760000030840098308500013F8A00003F0A0075
:1007700083310800F8010230840098308500013F81
:100780008A00003F0A008331F3007308F50002304D
:10079000840098308500013F8A00003F0A008331C1
:1007A000F3007308F6000230840098308500013FA2
:1007B0008A00003F0A008331F3007308F700FF2B23
:1007C0004F307606031DE52BE62B0F2C4B307706BA
:1007D000031DEB2BEC2B0F2CF801F80A0F2C7230B9
:1007E0007606031DF42BF52B0F2C72307706031DB4
:1007F000FA2BFB2B0F2CF8010F2C00304F2C750817
:10080000F300F4017408003A0319072CFD2B730858
:10081000413A0319E02B043A0319EF2BFD2B023068
:10082000840098308500013F8A00003F0A0084312F
:100830000230840098308500013F8A00003F0A00A2
:1008400084310230840098308500013F8A00003FE7
:100850000A0084310230840098308500013F8A000C
:10086000003F0A0084310230840098308500013F47
:100870008A00003F0A0084310230840098308500ED
:10088000013F8A00003F0A00843102308400983022
:100890008500013F8A00003F0A0084317808080083
:1008A0003030FB007B084001A4003030FB007B08A7
:1008B000A7003030FB007B08A500221E602C612CB5
:1008C000662C3130FB007B08A6006A2C3030FB0020
:1008D0007B08A60022080F39303EFB007B08A400ED
:1008E000231E732C742C792C3130FB007B08A7005D
:1008F0007D2C3030FB007B08A70023080F39303EE9
:10090000FB007B08A5007C30FB007B084301A000B6
:100910004F30FB007B08A1002C30FB007B08A200BD
:1009200040012608FB007B084301A3004001240886
:10093000FB007B084301A4002C30FB007B08A500D2
:1009400040012708FB007B084301A6004001250861
:10095000FB007B084301A7000D30FB007B08A800CB
:100960000A30FB007B08A9000A30FB007B08F80076
:10097000A0308C31472484318331BA23843108007C
:100980000230840098308500013F8A00003F0A0051
:1009900084314001C7004708CB006503031DD12CFB
:1009A000D22C0A2D25304B06031DD72CD82CEC2C2D
:1009B000E501510886005208870081015408C400EF
:1009C0005308C3001030840098308500013F8A002E
:1009D000003F0A0084311D2D6808C700C801470880
:1009E0005307C9004808543DCA004A085202031D73
:1009F000FB2C490851020318FE2CFF2C1D2D510819
:100A00008600520887004B0881000130D107003072
:100A1000D23D1D2D25304B06031D0F2D102D172DFA
:100A2000E501E50A5408D2005308D1001D2DE60166
:100A3000E60A4B08C7004708E700400166080800BF
:100A4000F101F10A0C30840098308500013F8A00E2
:100A5000003F0A008531F101F10A0A308400983024
:100A60008500013F8A00003F0A0085310130F40013
:100A70000030F5000E30840098308500013F8A0078
:100A8000003F0A008531F1010A308400983085006A
:100A9000013F8A00003F0A008531F101F10A083068
:100AA000840098308500013F8A00003F0A008531AC
:100AB000C830F4000030F5000E3084009830850016
:100AC000013F8A00003F0A0085316F2D023084000B
:100AD00098308500013F8A00003F0A0085310630CA
:100AE000840098308500013F8A00003F0A0085316C
:100AF000003A031D7C2D7D2D662D08002030F3006B
:100B00007308F1000230840090308500013F8A00B4
:100B1000003F0A0085313E30F3007308F1000230D7
:100B2000840090308500013F8A00003F0A00853133
:100B30003E30F3007308F1000230840090308500ED
:100B4000013F8A00003F0A0085313E30F300730800
:100B5000F1000230840090308500013F8A00003FA0
:100B60000A0085312030F3007308F1000230840060
:100B700090308500013F8A00003F0A0085310D302A
:100B8000F3007308F1000230840090308500013FCB
:100B90008A00003F0A0085310A30F3007308F10033
:100BA0000230840090308500013F8A00003F0A0037
:100BB000853108007208F9007108F8007408FB001C
:100BC0007308FA000130F5020030F63B750A031D88
:100BD000ED2D760A031DED2DEE2DFD2DF101F20117
:100BE000332E0130F8070030F93D0130FA070030AC
:100BF000FB3D0130F5020030F63B780886007908AD
:100C0000870001080319052E062E252E7A08840078
:100C10007B088500120003190E2E0F2E252E750855
:100C200076040319142E152E252E7A0884007B08CD
:100C300085000008F7007808860079088700010819
:100C400077060319242E252EF12D780886007908C1
:100C500087007A0884007B08850000080102F10003
:100C6000F201031CF2030800953130258631003A69
:100C700003193B2E3C2E6E2E492E9431F9248631D9
:100C80008A2E9431FE2486318A2E953108258631AC
:100C90008A2E41012F084001A0002008FA000630EA
:100CA000A03E86008701413F8A00403F0A0086310E
:100CB0004001A100A2012208003A0319602E452E2E
:100CC0002108013A0319452E033A03193D2E013A32
:100CD0000319412E073A0319452E452E41013C10B8
:100CE0001730A03E86008701403F84008501810ABD
:100CF00000089431EF24863101304101B802003000
:100D0000B93B38083904031D862E872E892E0630FC
:100D10008A2E033008004001220823040319912E73
:100D2000922EDE2E2308F2002208F10088312120C5
:100D3000863172084001A7007108A600CF2E210855
:100D4000F2002008F1002308F4002208F30027082D
:100D5000F6002608F5008531DA258631710872041F
:100D6000031DB32EB42EB52EE02E40012008013E07
:100D7000F1000030213DF2002208840023088500A4
:100D80000008A400A5012408F3002508F400893117
:100D90001121863172084001A1007108A0002008CD
:100DA00021040319D42ED52EDE2E2008860021081A
:100DB00087000108031DDD2EDE2E9F2EA001A1015C
:100DC00008004001AA002A30A9002908AE0002301C
:100DD000AC000030AD0040012A088D31F825863185
:100DE000003A0319F42EF52EEB2EDB30F600163008
:100DF000F7002E304001A9002908F80096313B2663
:100E000086310130F1000030F20028309631A926F9
:100E100086310030F600F700F801963162268631FF
:100E20009531212586318831BD2086314001A900C8
:100E30002908AB002B0303191E2F1F2F132F2B087C
:100E4000031D232F242F252F2F2FFF30AC07FF301A
:100E5000AD3D2C082D04031D2E2F2F2FEB2E2E0819
:100E600008009431C62487314001A00041013708B1
:100E7000860087014001200881000130A000200881
:100E80004101B7070130B8020030B93B38083904D6
:100E900003194B2F4C2F512F9431E3248731053008
:100EA0007C2FBC155B2F9531172587317C2F953111
:100EB000122587317C2F2C084001A0002008FA0061
:100EC000410121088A0020080A0087314001A10061
:100ED000A2012208003A03196E2F572F2108013A68
:100EE0000319572F033A0319532F013A0319532FAC
:100EF000073A0319572F572F080040019C01313042
:100F000098009901C1309A0008309600DE309200B6
:100F1000EF309300253094007E01CE01C930C3002C
:100F20000E30B800E501C401B901CF01E601BA01F4
:100F3000C501D001FF30BB00FF30C600FF30D1003B
:100F40003F30BC003F30C7003F30D2003F133E135C
:100F50003D17AC30F1001430F20095318425873113
:100F60004E01161609307D01C50013307E0199002F
:100F700014309A002530A4000F309C0015307D01FC
:100F8000CD000A30C6000D30CB0008004001A3019F
:100F9000B701E22F3708343E840098300318013E31
:100FA00085000008A1002108B6003608A10021082C
:100FB000F60023308D315225873101304001A100E8
:100FC0002108B7073430F1009830F2008831212031
:100FD000873140013708A100A20172082202031DD7
:100FE000F32F71082102031CF62FF72FCA2F23308D
:100FF000A1002108F800563083311D2387310800F5
:1010000043018F010830900091014F308D00901204
:1010100008007A0886008701403FF100413FF20056
:101020007A08023E8600870101089631A926883198
:101030000030F600F700F80196313B268831023087
:1010400008007208F5007108F4002A280130F10741
:101050000030F23D71088400720885001200031D03
:1010600032283328262874087102F1007508723B73
:10107000F20008004001BE01433096317D268831E0
:1010800040014408FA004308F9003E3097315227E6
:1010900088313E304001BD003D08F80054308331B6
:1010A0001D23883108009531422588314001A10077
:1010B0002108A200A3012208A1002108F600233084
:1010C0008D315225883123304001A1002108F800DC
:1010D000503083311D2388310800710872040319D0
:1010E00072287328852802307302031C7828792817
:1010F000852872084001D4007108D3007308FF3EB0
:10110000F4007408E800013086280030080042012D
:101110001908F00040015D08283E86000130870074
:10112000700881000130F0007008DD0708305D02B2
:10113000031C9B289C289D28DD010130F0007008CD
:10114000DB07080054011908F0007C08383E8600CF
:1011500001308700700881000130F0007008FC0742
:1011600008307C02031CB528B628B728FC010130E2
:10117000F00070084001E1070800F201F20A4101A5
:10118000BC18C328C428D7283C11FF30F1007108CF
:10119000B6009431B12488319431B7248831943128
:1011A000B424883141013B08F1007108F200720853
:1011B000080089314F2188311430F4000030F500E7
:1011C0000E30840098308500013F8A00003F0A00FD
:1011D000883140015808A3005708A20084315024E8
:1011E00088318A31262288310800400166080319B7
:1011F000FA28FB28FD280130102906308400983099
:101200008500013F8A00003F0A008931003A031936
:101210000A290B290F298431C02488311029003074
:101220000800710886007208870001087306031D14
:101230001A291B291C292E297208F6007108F500AD
:10124000F10A0319F20A750886007608870001087A
:10125000031D2B292C291129F101F2010800F800A6
:101260007208F6007108F5007808F3007308F700BB
:10127000770886008701F70A7608F4007508F300FE
:10128000F50A0319F60A730884007408850000083B
:10129000C03F8908031D4D294E29382908002430F4
:1012A000FB007B084301A0002430FB007B08A10069
:1012B0002430FB007B08A2000330FB007B08F80011
:1012C000A0308C31472489313F30F3009830F4004E
:1012D0000530FB007B08F5008B31252389310800A0
:1012E000083040016F020318762977299029630896
:1012F000403E860001308700010854019A00013009
:10130000F00070084001E30708306302031C8929DC
:101310008A298B29E3010130F0007008EF07922938
:101320004E0119130800083040016E020318992974
:101330009A29B3295E08303E8600013087000108F3
:1013400042019A000130F00070084001DE070830C9
:101350005E02031CAC29AD29AE29DE010130F0008C
:101360007008EE07B5294E01191208004001A600C9
:10137000A701A70A4101BC18BE29BF29D629BC1460
:101380004001A70126080319C629C729CB29410115
:10139000BA01BA0AD0290230FB007B084101BA0029
:1013A0009431BA2489319631482689314001270881
:1013B0000800F500710872040319DF29E029F129FA
:1013C0007535A03E860087017108C03F7208C13F95
:1013D0007308F4007508AC3E86008701740881002C
:1013E000FE297535A03E86008701AD30C03F143020
:1013F000C13F7508AC3E8600870181010800F400FA
:101400007408031D042A052A132A5B30F3007308AD
:10141000F1000230840090308500013F8A00003FD7
:101420000A008A31252A7403031D172A182A252A3F
:101430005D30F3007308F1000230840090308500C5
:10144000013F8A00003F0A008A3108002D30FB006E
:101450007B084301A0002D30FB007B08A1002D304C
:10146000FB007B08A2000D30FB007B08A3000A30C4
:10147000FB007B08A4000530FB007B08F800A030CF
:101480008C3147248A313A30F3009830F40005302B
:10149000FB007B08F5008B3125238A3108004001D1
:1014A0006F080319542A552A4F2A4E01191B592A2D
:1014B0005A2A5E2A710854019A00762A1913710873
:1014C000F20040016408403E860001308700720847
:1014D00081000130F2007208E40708306402031C46
:1014E000722A732A742AE4010130EF024E0119179F
:1014F000080040016E0803197E2A7F2A792A4E01CE
:10150000191A832A842A882A710842019A00A02A7B
:1015100019127108F20040015F08303E8600013068
:101520008700720881000130F2007208DF0708307E
:101530005F02031C9C2A9D2A9E2ADF010130EE02D5
:101540004E0119160800400161080319A82AA92AAA
:10155000A32A6208DA3E860087010108F1007108BB
:10156000E0006208383E8600013087000108F10083
:101570007108F2000130F1007108E20708306202E0
:10158000031CC32AC42AC52AE2014E019913013063
:101590004001E1024E019917720808000530400130
:1015A000B3003308A80018308F3178278A31400102
:1015B0002908BB002808BA003B081F39B3003308CC
:1015C000B8003A08B3003308B9003908B300B401D1
:1015D0003808B500B6013508B600B5013308350442
:1015E000BA0034083604BB003B08B2003A08B10028
:1015F000080040015B080319FE2AFF2AF92A5C084B
:10160000203E8600013087000108F1007108DA00F1
:101610005C08283E8600013087000108F10071084F
:10162000F2000130F1007108DC0708305C02031C95
:101630001A2B1B2B1C2BDC014E019912013040018F
:10164000DB024E01991672080800F9014A2B02309C
:10165000840098308500013F8A00003F0A008B31EA
:10166000F6007608F8007408F7007308F6007908A9
:101670007607840077080318770A85000008780643
:101680000319432B442B462B0030512B0130F6001D
:101690007608F90775087902031C4F2B502B272B6E
:1016A000013008009431B1248B3141013C1C592B8D
:1016B0005A2B682B953130258B31003A0319612B59
:1016C000622B682B0F304001A30023084101BA00B0
:1016D00041013A084001A300A401A335A40D28301C
:1016E000230784009030243D8500013F8A00003F9D
:1016F0000A008B314001A50025084101BA0008000D
:1017000041013C1002304001A00020084101BB0013
:10171000912B953103258B31AF2B953108258B31DA
:10172000AF2B2E084001A0002008FA000430A03E94
:1017300086008701413F8A00403F0A008B3140010B
:10174000A100A2012208003A0319A72B8D2B210822
:10175000023A0319892B013A0319892B8D2B0800B2
:101760004001BC0149308E31F3268B31FF304001FE
:101770004905F9000F304A05FA003C3097315227ED
:101780008B31FF3040014B05F9000F304C05FA005A
:101790003C30973152278B31FF3040014D05F90025
:1017A0000F304E05FA003C30973152278B313C30D8
:1017B0004001BB003B08F800583083311D238B31BA
:1017C00008004101BC15F12B953103258B31122CFA
:1017D0009431C9248B310330122C953108258B317B
:1017E000122C2C084001A0002008FA004101210819
:1017F0008A0020080A008B314001A100A2012208C2
:10180000003A0319042CED2B2108013A0319ED2BA2
:10181000033A0319E42B013A0319E42B073A03199D
:10182000E82BED2B080095313C258C314001A100BF
:101830002108A500A2012508A1002108F6002230F8
:101840008D3152258C3122304001A1002108F80051
:101850004C3083311D238C31953126258C31103E3F
:101860004001A1002108A500A2012508A10021082E
:10187000F60022308D3152258C3122304001A100FA
:101880002108F8004C3083311D238C3108004001C1
:10189000A100A001732C0430840098308500013F22
:1018A0008A00003F0A008C31003A0319582C592C49
:1018B000732C400120082107F900790886000130C7
:1018C00087000108FA007A08F6000030840098309A
:1018D0008500013F8A00003F0A008C310130F90089
:1018E00079084001A007780840012002031C792CE8
:1018F0007A2C4B2C08003C30F3007308F1000230C6
:10190000840090308500013F8A00003F0A008C313E
:101910003C30F3007308F100023084009030850001
:10192000013F8A00003F0A008C313C30F30073080D
:10193000F1000230840090308500013F8A00003FB2
:101940000A008C312030F3007308F100023084006B
:1019500090308500013F8A00003F0A008C3108006A
:101960004001B50097317A278C31003A0319B92C20
:10197000BA2CB22C02304001B2003208A800193053
:101980008631E1268C314001B3003308B6000330C4
:10199000B2003208A80019308631E1268C314001AE
:1019A000B3003308B7003708B3003608B20004307C
:1019B000B400330DB30CB20CB40BD92C350886002F
:1019C00087013208C03F3308C13F08004001B5001D
:1019D000973190278C31003A0319EF2CF02CE82C2A
:1019E00004304001B2003208A80019308631E126E7
:1019F0008C314001B3003308B6000530B200320824
:101A0000A80019308631E1268C314001B30033083B
:101A1000B7003708B3003608B2000430B400330D05
:101A2000B30CB20CB40B0F2D3508860087013208B9
:101A3000C03F3308C13F08004001B5009731A627D9
:101A40008D31003A0319252D262D1E2D063040011B
:101A5000B2003208A80019308631E1268D314001EC
:101A6000B3003308B6000730B2003208A8001930BE
:101A70008631E1268D314001B3003308B7003708C5
:101A8000B3003608B2000430B400330DB30CB20C0E
:101A9000B40B452D3508860087013208C03F330856
:101AA000C13F0800F8007808F1000030F2008831EA
:101AB00021208D317108F7007708F807760E0F396D
:101AC0008919F0380F39483E860001308700010837
:101AD000F700780886008701770881000130F70059
:101AE0007708F80776080F39483E860001308700EE
:101AF0000108F70078088600870177088100013027
:101B0000F7007708F8077808860087018101080048
:101B10007A08F2007908F100223089312F218D31C5
:101B20004001C201A92D4208223E8600870101081A
:101B3000A0002008F1000230840090308500013FB1
:101B40008A00003F0A008D3101304001A0002008CA
:101B5000C2077A08F2007908F100883121208D311E
:101B600040014208A000A10172082102031DBA2D04
:101B700071082002031CBD2DBE2D932D08007C088A
:101B8000DA3E86008701810154011D1DC82DC92D33
:101B9000D42D7C08DA3E8600870181144201680852
:101BA0008A0067080A008D3154019D1CD82DD92D5B
:101BB000E42D7C08DA3E86008701011542016608A3
:101BC0008A0065080A008D317C08DA3E86008701AC
:101BD00001080319EC2DED2DF42D420164088A0053
:101BE00063080A008D31F72D8831A2208D3108005D
:101BF000F200F301F30A41013C19FF2D002E302EB3
:101C00007208F1007108B600BC103C153C100E3093
:101C1000F1007108BA00F430B4000130B500BC1511
:101C2000AD30A0001430A100AC01AD30A2001430E2
:101C3000A300AD01AD30A4001430A500AE01AD305D
:101C4000A6001430A700AF01AF30A8001430A900DF
:101C5000B0019431B1248D31963155268D31F30187
:101C6000730808004E019912B230F1000E30F200F4
:101C700095315A258E314E0119129330F1000930F9
:101C8000F200953160258E31083042019F0090307E
:101C90009D0024309E0040309B0003309C00AA3001
:101CA000F1001430F20095314E258E31D330F10021
:101CB0001430F200953154258E31CF30F1001430BC
:101CC000F200953148258E314001DA01DF01DE0155
:101CD0000830F3007308EE00DD01DC01DB014E018A
:101CE000991608004E019913BF30F1000D30F20033
:101CF000953178258E314E0119137030F10009307D
:101D0000F20095317E258E31083054019F009030CD
:101D10009D0024309E0040309B0003309C00AB307F
:101D2000F1001430F20095316C258E31DB30F1007A
:101D30001430F200953172258E31D730F100143015
:101D4000F200953166258E314001E001E401E301A6
:101D50000830F3007308EF00FC01E201E1014E01DD
:101D60009917080040015D08203E86000130870079
:101D7000810142011D1DBD2EBE2ECB2E40015D08EE
:101D8000203E860001308700811442015E088A00EF
:101D90005D080A008E3142019D1CCF2ED02EDD2E13
:101DA00040015D08203E8600013087000115420198
:101DB0005C088A005B080A008E3140015D08203E05
:101DC00086000130870001080319E72EE82EEF2E68
:101DD00042015A088A0059080A008E31F22E8831D1
:101DE00087208E3108004001B80097317A278E3164
:101DF000003A0319FC2EFD2EF52E39308C31B0241B
:101E00008E3140013808860087013908C03F3A0802
:101E1000C13F973190278E31003A0319102F112FAF
:101E2000092F39308C31E6248E3140013808023ECA
:101E3000860087013908C03F3A08C13F9731A6277D
:101E40008E31003A0319252F262F1E2F39308D3160
:101E50001C258E3140013808043E86008701390870
:101E6000C03F3A08C13F08004001AD00672F2A0873
:101E7000AB000430AB36890B3A2F2B080139AC008C
:101E80002C08AE002E08031D462F472F4F2F2A186F
:101E90004A2F4B2F4D2F9816772F9812772F2A18ED
:101EA000522F542F0130552F003096319A268F3102
:101EB000772F2A08AB002B08F10002308400903005
:101EC0008500013F8A00003F0A008F31772F2D08DF
:101ED000AB00AC012C08003A03196F2F772F2B08A9
:101EE0004C3A0319372F1F3A0319592F772F08003F
:101EF0004001AE0040012E088D31F8258F31003AA7
:101F00000319832F842F7A2FEC30F6001630F70058
:101F10002F304001AA002A08F80096313B268F3165
:101F20000130F1000030F20028309631A9268F31BF
:101F30000030F600F700F801963162268F319531B6
:101F400021258F318831BD208F31013A0319A92F06
:101F5000AA2FA22F40013008AB002F08AA002B089F
:101F6000AA00AB012F08AD00AC012A082C04A80080
:101F70002B082D04A90008008C317B248F314001EF
:101F80004408A1004308A0002930A2009830A30013
:101F900086318B268F314001200821040319D12F6F
:101FA000D22FD52FC601E901F02F4408A100430824
:101FB000A0001230A2009830A30086318B268F310A
:101FC0004001200821040319E62FE72FEC2FC6015A
:101FD000C60AE901E90AF02F0230C5004508C6002B
:101FE0004408FA004308F9008D3188258F31853186
:101FF0007E258F31400146088931FF218F3108004D
:10200000F9340A3479340A3400340034C8341534CD
:1020100060341534B2340E345A341534EB3414347D
:102020009334093432340E34A3340A344F340A342E
:1020300000340034BF3415347E341534BF340D34CD
:1020400078341534E73414347034093472340E346F
:10205000F4341434B63415349D3415343434063421
:102060003134073496341534E1340B34F9341434F4
:10207000FE34143403341534083415340D34153457
:1020800012341534173415341C34153480340B34A1
:1020900000340034003400340034003400340034A0
:1020A0000034003400340034003400340034003490
:1020B0000034003400340034003400340034003480
:1020C0000034003400340034003400340034003470
:1029540008000800080001300800053008004E0196
:102964000F1008004301901208004E0119100800CE
:102974004301111408004301911408004301111587
:10298400080043019115080043010C0808004E019A
:102994000F14080040016908080088318720943129
:1029A400080042011D121D1608008831A22094312E
:1029B400080054011D121D1608004301911611163A
:1029C4000800430191121116080054011E0C01392C
:1029D400080042011E0C01390800F100710843018E
:1029E4008C0008004101BC10BB010E30080094317A
:1029F400BD249431013008009431BD249431023057
:102A040008009431BD249531013008009431C0246C
:102A14009531003008009431E324953105300800E5
:102A24009431DF2495310A3008009431DF24953144
:102A3400093008004101BC10BB010E300800003011
:102A44008931B62195310800400158080139013C0B
:102A540008004E010C0E890C013908004301110EC7
:102A6400890C890C013908004E010F1C3A2D3B2DAD
:102A7400362D080040010C0E890C0139013C080078
:102A840040010C0D0C0D0139013C08007208420193
:102A9400DA007108D900080072084201DE007108EA
:102AA400DD00080072084201DC007108DB00080048
:102AB40072084201E0007108DF0008007208420158
:102AC400E2007108E100080072084201E4007108A4
:102AD400E300080072084201E8007108E7000800FA
:102AE40072084201E6007108E5000800720841011D
:102AF400EB007108EA00080072084101ED0071085A
:102B0400EC00080072084101E9007108E8000800BF
:102B1400640080010131890B8B2D0034FE0012000A
:102B24001E00FE0B912D003441013C109431C3244E
:102B340095310430080041013C1436359431EF24BA
:102B44009531033008007508F2007408F1009731DC
:102B5400BC27953108007E013F1FB12DB22DB52D44
:102B640096318B269531080041013C140314360D2F
:102B74009431EF2495310530080040016108031DAC
:102B8400C42DC62D0130C72D0030080040015B085C
:102B9400031DCD2DCF2D0130D02D00300800013084
:102BA400F10071084001D7000130F1007108D8002C
:102BB40008001430840090308500013F8A00003FF3
:102BC4000A00953108002230840090308500013FCE
:102BD4008A00003F0A00953108001A3084009030C2
:102BE4008500013F8A00003F0A00953108006030EB
:102BF40051018D008F0191010630930090019201E3
:102C040008004F0196019701980199019A019B01CF
:102C14009C019D0108007103031D112E122E152E17
:102C240040011A13172E40011A1708007103031DDF
:102C34001C2E1D2E202E40011810222E4001181487
:102C44000800400192137103031D292E2A2E2C2EF5
:102C540098172D2E9813921708008831F520963175
:102C6400003A0319362E372E2F2E4001E60167084D
:102C740008007708F2007608F1007808F90079086E
:102C8400F30000308931D921963108004F2E953157
:102C9400362596318B31522396314101BC18532E7F
:102CA400542E492E08004301901A592E5A2E612E93
:102CB4008F010830900091014F308D00901608006C
:102CC4007708F2007608F1007808F9007908F30033
:102CD40002308931D921963108007608F700770847
:102CE400F1001630840090308500013F8A00003FD7
:102CF4000A00963108004001BC008A31CE22963188
:102D040040013C08860087013108C03F3208C13FBA
:102D140008004101680869040319912E922E972E28
:102D240069088A0068080A0096317E013F1308008A
:102D34004001A9000130A8002908A8025808280663
:102D4400FE392806D8008831D92096310800F400CD
:102D54004101BC1DAE2EAF2EB82E7408F3007308CB
:102D6400B7007208B9007108B800BC11080002303D
:102D7400F1000030F2007A089631A926963100302D
:102D8400F600F700F80196313B269631043008002E
:102D94000130F1000030F2007A089631A92696310C
:102DA4000030F600F700F80196313B2696310430E6
:102DB40008000130F1000030F2007A089631A926AB
:102DC40096310030F600F700F80196313B26963133
:102DD400023008000230F1000030F2007A08963127
:102DE400A92696310030F600F700F80196313B260B
:102DF4009631023008000230F1000030F2007A0807
:102E04009631A92696310030F600F700F801963184
:102E14003B269631043008000130F1000030F20006
:102E24007A089631A92697310030F600F700F801A8
:102E340096313B269731023008000230F100003011
:102E4400F2007A089631A92697310030F600F7008F
:102E5400F80196313B269731023008000130F10029
:102E64000030F2007A089631A92697310030F60036
:102E7400F700F80196313B269731043008003034CE
:102E840031343234333434343534363437343834FA
:102E940039344134423443344434453446340034C0
:102EA4004001A0007908FB007B08F60020088D3162
:102EB400522597317A08FB007B08F6004001200870
:102EC4008D3152259731080047304B019F000B305C
:102ED4009D00DC309C001D084101E7004B011C08EB
:102EE4004101E6004E018C1290304B019E00080017
:102EF40002304001AF002F08A80019308631E126C6
:102F040097310139031D872F892F01308A2F003013
:102F14004001B0003008B10031080800043040011D
:102F2400AF002F08A80019308631E1269731013906
:102F3400031D9D2F9F2F0130A02F00304001B000B2
:102F44003008B1003108080006304001AF002F08F6
:102F5400A80019308631E12697310139031DB32FBA
:102F6400B52F0130B62F00304001B0003008B10059
:102F740031080800C52F0B30F3006230890BC02FD5
:102F8400F30BC02F00320130F1020030F23B710A22
:102F9400031DD02F720A031DD02FD12FBD2F08007F
:102FA40096310326973188310020973187317D2768
:102FB40097319531F92597319731662797318E31BD
:102FC400322697318E317226973108007A088600AE
:102FD4008701403FF100413FF2007A08023E86003B
:102FE400870101089631A92697310030F600F700D1
:102FF400F80196313B269731023008006F341634BD
:10300400DB341534E5341534EF3415340D3416340B
:103014001834163423341634A5341534BC340F3420
:10302400533454345234453441344D345F344F3482
:10303400503445344E3400345234653462346F3481
:103044006F34743469346E3467340D340A34443460
:103054004934533443344F344E344E34453443347A
:103064005434003431342E3431342E34303400347A
:1030740045344E3444340D340A3443344D344434EA
:0C3084003E342034343498343434983412
:020000040001F9
:08000000FF3FFF3FFF3FFF3F00
:0A000E00EC3FFF3F9F3FFF3FFF3F25
:00000001FF
