:020000040000fa
:10000000f07f002055cd0300e9ff0300efff030060
:1000100000000000000000000000000000000000e0
:1000200000000000000000000000000047940200f3
:100030000000000000000000479402004794020006
:10004000479402004794020047940200479402003c
:10005000595f030047940200254c030047940200b7
:10006000479402004794020047940200479402001c
:1000700005a00200a9cf0200c9270300479402008f
:100080004794020047940200a5d903004794020058
:1000900047940200000000000000000047940200a6
:1000a00047940200479402004794020047940200dc
:020000040000fa
:1000b000f8b5c046f8bc08bc9e4670473dcb03006f
:1000c000f8b5c046f8bc08bc9e46704715cb030087
:020000040000fa
:1000d00044cb02000100000090da020001000000a1
:020000040000fa
:1000e000a50000000000000000000000000000006b
:1000f0000000000000000000000000000000000000
:1001000000000000000000000000000000000000ef
:1001100000000000000000000000000000000000df
:1001200000000000000000000000000000000000cf
:04f890000000c0466e
:020000040000fa
:10f89400a5000000000000000000000000000000bf
:10f8a4000000000000000000000000000000000054
:10f8b4000000000000000000000000000000000044
:10f8c4000000000000000000000000000000000034
:10f8d4000000000000000000000000000000000024
:020000040001f9
:044d14000000c04695
:020000040000fa
:020000040001f9
:104d1800a5000000000000000000000000000000e6
:104d2800000000000000000000000000000000007b
:104d3800000000000000000000000000000000006b
:104d4800000000000000000000000000000000005b
:104d5800000000000000000000000000000000004b
:04a198000000c046bd
:020000040000fa
:020000040001f9
:10a19c00a50000000000000000000000000000000e
:10a1ac0000000000000000000000000000000000a3
:10a1bc000000000000000000000000000000000093
:10a1cc000000000000000000000000000000000083
:10a1dc000000000000000000000000000000000073
:020000040000fa
:020000040001f9
:10f53400a500000000000000000000000000000022
:10f5440000000000000000000000000000000000b7
:10f5540000000000000000000000000000000000a7
:10f564000000000000000000000000000000000097
:10f574000000000000000000000000000000000087
:020000040002f8
:080df400000000000000c046f1
:020000040000fa
:020000040002f8
:100dfc002e2e2f7372632f636f6e6669672f5341ac
:100e0c004d4432315f57475f494f542f6c696272c2
:100e1c006172792f63727970746f617574686c6923
:100e2c00622f63616c69622f63616c69625f7265ca
:100e3c0061642e633a36383a25783a4e554c4c203c
:100e4c00706f696e7465722072656365697665642e
:100e5c000a00c0462e2e2f7372632f636f6e666965
:100e6c00672f53414d4432315f57475f494f542fe1
:100e7c006c6962726172792f63727970746f6175cb
:100e8c0074686c69622f63616c69622f63616c6951
:100e9c00625f726561642e633a37343a25783a4959
:100eac006e76616c6964206c656e6774682072651f
:100ebc006365697665640a002e2e2f7372632f6347
:100ecc006f6e6669672f53414d4432315f57475ff0
:100edc00494f542f6c6962726172792f6372797009
:100eec00746f617574686c69622f63616c69622fd1
:100efc0063616c69625f726561642e633a38313a82
:100f0c0025783a63616c69625f6765745f616464dc
:100f1c0072202d206661696c65640a002e2e2f7379
:100f2c0072632f636f6e6669672f53414d44323184
:100f3c005f57475f494f542f6c6962726172792f0a
:100f4c0063727970746f617574686c69622f636118
:100f5c006c69622f63616c69625f726561642e6398
:100f6c003a39373a25783a617452656164202d20fc
:100f7c006661696c65640a002e2e2f7372632f6391
:100f8c006f6e6669672f53414d4432315f57475f2f
:100f9c00494f542f6c6962726172792f6372797048
:100fac00746f617574686c69622f63616c69622f10
:100fbc0063616c69625f726561642e633a313033d0
:100fcc003a25783a63616c69625f726561645f7a35
:100fdc006f6e65202d20657865637574696f6e2062
:100fec006661696c65640a002e2e2f7372632f6321
:100ffc006f6e6669672f53414d4432315f57475fbf
:10100c00494f542f6c6962726172792f63727970d7
:10101c00746f617574686c69622f63616c69622f9f
:10102c0063616c69625f726561642e633a31323858
:10103c003a25783a4e554c4c20706f696e74657237
:10104c002072656365697665640a00002e2e2f7325
:10105c0072632f636f6e6669672f53414d44323153
:10106c005f57475f494f542f6c6962726172792fd9
:10107c0063727970746f617574686c69622f6361e7
:10108c006c69622f63616c69625f726561642e6367
:10109c003a3133353a25783a63616c69625f72652f
:1010ac0061645f7a6f6e65202d206661696c656482
:1010bc000a00c0462e2e2f7372632f636f6e666903
:1010cc00672f53414d4432315f57475f494f542f7f
:1010dc006c6962726172792f63727970746f617569
:1010ec0074686c69622f63616c69622f63616c69ef
:1010fc00625f726561642e633a3138383a25783a0a
:10110c004e554c4c20706f696e746572207265631d
:10111c0065697665640a00002e2e2f7372632f6347
:10112c006f6e6669672f53414d4432315f57475f8d
:10113c00494f542f6c6962726172792f63727970a6
:10114c00746f617574686c69622f63616c69622f6e
:10115c0063616c69625f726561642e633a31393523
:10116c003a25783a63616c69625f726561645f7a93
:10117c006f6e65202d206661696c65640a00c0463f
:10118c002e2e2f7372632f636f6e6669672f534118
:10119c004d4432315f57475f494f542f6c6962722f
:1011ac006172792f63727970746f617574686c6990
:1011bc00622f63616c69622f63616c69625f726537
:1011cc0061642e633a3230343a25783a4e6f6e634e
:1011dc0065206661696c65640a00c0462e2e2f730b
:1011ec0072632f636f6e6669672f53414d443231c2
:1011fc005f57475f494f542f6c6962726172792f48
:10120c0063727970746f617574686c69622f636155
:10121c006c69622f63616c69625f726561642e63d5
:10122c003a3231373a25783a43616c632054656d14
:10123c00704b6579206661696c65640a0000c04674
:10124c002e2e2f7372632f636f6e6669672f534157
:10125c004d4432315f57475f494f542f6c6962726e
:10126c006172792f63727970746f617574686c69cf
:10127c00622f63616c69622f63616c69625f726576
:10128c0061642e633a3232393a25783a47656e44b6
:10129c006967206661696c65640a00002e2e2f73e5
:1012ac0072632f636f6e6669672f53414d44323101
:1012bc005f57475f494f542f6c6962726172792f87
:1012cc0063727970746f617574686c69622f636195
:1012dc006c69622f63616c69625f726561642e6315
:1012ec003a3234353a25783a0a00c0462e2e2f73fe
:1012fc0072632f636f6e6669672f53414d443231b1
:10130c005f57475f494f542f6c6962726172792f36
:10131c0063727970746f617574686c69622f636144
:10132c006c69622f63616c69625f726561642e63c4
:10133c003a3235313a25783a5265616420656e63ec
:10134c00727970746564206661696c65640a00006a
:10135c002e2e2f7372632f636f6e6669672f534146
:10136c004d4432315f57475f494f542f6c6962725d
:10137c006172792f63727970746f617574686c69be
:10138c00622f63616c69622f63616c69625f726565
:10139c0061642e633a3238373a25783a4e554c4cc4
:1013ac0020706f696e74657220726563656976650d
:1013bc00640a00002e2e2f7372632f636f6e6669a2
:1013cc00672f53414d4432315f57475f494f542f7c
:1013dc006c6962726172792f63727970746f617566
:1013ec0074686c69622f63616c69622f63616c69ec
:1013fc00625f726561642e633a3330323a25783a13
:10140c0063616c69625f726561645f627974657354
:10141c005f7a6f6e65202d206661696c65640a00c9
:10142c002e2e2f7372632f636f6e6669672f534175
:10143c004d4432315f57475f494f542f6c6962728c
:10144c006172792f63727970746f617574686c69ed
:10145c00622f63616c69622f63616c69625f726594
:10146c0061642e633a3333383a25783a4e554c4cf6
:10147c0020706f696e74657220726563656976653c
:10148c00640a00002e2e2f7372632f636f6e6669d1
:10149c00672f53414d4432315f57475f494f542fab
:1014ac006c6962726172792f63727970746f617595
:1014bc0074686c69622f63616c69622f63616c691b
:1014cc00625f726561642e633a3334373a25783a39
:1014dc005265616420636f6e666967207a6f6e6512
:1014ec00206661696c65640a0000c0462e2e2f735d
:1014fc0072632f636f6e6669672f53414d443231af
:10150c005f57475f494f542f6c6962726172792f34
:10151c0063727970746f617574686c69622f636142
:10152c006c69622f63616c69625f726561642e63c2
:10153c003a3335333a25783a4661696c65642074e0
:10154c006f2067657420636f6e666967207a6f6eb3
:10155c00652073697a650a002e2e2f7372632f63d0
:10156c006f6e6669672f53414d4432315f57475f49
:10157c00494f542f6c6962726172792f6372797062
:10158c00746f617574686c69622f63616c69622f2a
:10159c0063616c69625f726561642e633a343233e5
:1015ac003a25783a4e554c4c20706f696e746572c2
:1015bc002072656365697665640a00002e2e2f73b0
:1015cc0072632f636f6e6669672f53414d443231de
:1015dc005f57475f494f542f6c6962726172792f64
:1015ec0063727970746f617574686c69622f636172
:1015fc006c69622f63616c69625f726561642e63f2
:10160c003a3432393a25783a496e76616c696420fd
:10161c00736c6f742072656365697665640a00008b
:10162c002e2e2f7372632f636f6e6669672f534173
:10163c004d4432315f57475f494f542f6c6962728a
:10164c006172792f63727970746f617574686c69eb
:10165c00622f63616c69622f63616c69625f726592
:10166c0061642e633a3433363a25783a63616c6997
:10167c00625f726561645f7a6f6e65202d206661b2
:10168c00696c65640a00c0462e2e2f7372632f633b
:10169c006f6e6669672f53414d4432315f57475f18
:1016ac00494f542f6c6962726172792f6372797031
:1016bc00746f617574686c69622f63616c69622ff9
:1016cc0063616c69625f726561642e633a343433b2
:1016dc003a25783a63616c69625f726561645f7a1e
:1016ec006f6e65202d206661696c65640a00c046ca
:1016fc002e2e2f7372632f636f6e6669672f5341a3
:10170c004d4432315f57475f494f542f6c696272b9
:10171c006172792f63727970746f617574686c691a
:10172c00622f63616c69622f63616c69625f7265c1
:10173c0061642e633a3438303a25783a4e554c4c25
:10174c0020706f696e746572207265636569766569
:10175c00640a00002e2e2f7372632f636f6e6669fe
:10176c00672f53414d4432315f57475f494f542fd8
:10177c006c6962726172792f63727970746f6175c2
:10178c0074686c69622f63616c69622f63616c6948
:10179c00625f726561642e633a3438353a25783a63
:1017ac00496e76616c696420736c6f74207265632a
:1017bc0065697665640a00002e2e2f7372632f63a1
:1017cc006f6e6669672f53414d4432315f57475fe7
:1017dc00494f542f6c6962726172792f6372797000
:1017ec00746f617574686c69622f63616c69622fc8
:1017fc0063616c69625f726561642e633a34393877
:10180c003a25783a63616c69625f726561645f7aec
:10181c006f6e65202d206661696c65640a00c04698
:10182c002e2e2f7372632f636f6e6669672f534171
:10183c004d4432315f57475f494f542f6c69627288
:10184c006172792f63727970746f617574686c69e9
:10185c00622f63616c69622f63616c69625f726590
:10186c0061642e633a3531323a25783a63616c699a
:10187c00625f726561645f7a6f6e65202d206661b0
:10188c00696c65640a00c0462e2e2f7372632f6339
:10189c006f6e6669672f53414d4432315f57475f16
:1018ac00494f542f6c6962726172792f637279702f
:1018bc00746f617574686c69622f63616c69622ff7
:1018cc0063616c69625f726561642e633a353331b2
:1018dc003a25783a63616c69625f726561645f7a1c
:1018ec006f6e65202d206661696c65640a00c046c8
:1018fc002e2e2f7372632f636f6e6669672f5341a1
:10190c004d4432315f57475f494f542f6c696272b7
:10191c006172792f63727970746f617574686c6918
:10192c00622f63616c69622f63616c69625f7265bf
:10193c0061642e633a3537383a25783a496e7661c8
:10194c006c6964207a6f6e65207265636569766573
:10195c00640a00002e2e2f7372632f636f6e6669fc
:10196c00672f53414d4432315f57475f494f542fd6
:10197c006c6962726172792f63727970746f6175c0
:10198c0074686c69622f63616c69622f63616c6946
:10199c00625f726561642e633a3538323a25783a63
:1019ac00496e76616c696420736c6f742072656328
:1019bc0065697665640a00002e2e2f7372632f639f
:1019cc006f6e6669672f53414d4432315f57475fe5
:1019dc00494f542f6c6962726172792f63727970fe
:1019ec00746f617574686c69622f63616c69622fc6
:1019fc0063616c69625f726561642e633a3539307c
:101a0c003a25783a4e554c4c20706f696e7465725d
:101a1c002072656365697665640a00002e2e2f734b
:101a2c0072632f636f6e6669672f53414d44323179
:101a3c005f57475f494f542f6c6962726172792fff
:101a4c0063727970746f617574686c69622f63610d
:101a5c006c69622f63616c69625f726561642e638d
:101a6c003a3539373a25783a63616c69625f676554
:101a7c00745f7a6f6e655f73697a65202d2066617d
:101a8c00696c65640a00c0462e2e2f7372632f6337
:101a9c006f6e6669672f53414d4432315f57475f14
:101aac00494f542f6c6962726172792f637279702d
:101abc00746f617574686c69622f63616c69622ff5
:101acc0063616c69625f726561642e633a363032b1
:101adc003a25783a496e76616c696420706172615e
:101aec006d657465722072656365697665640a005c
:101afc002e2e2f7372632f636f6e6669672f53419f
:101b0c004d4432315f57475f494f542f6c696272b5
:101b1c006172792f63727970746f617574686c6916
:101b2c00622f63616c69622f63616c69625f7265bd
:101b3c0061642e633a3631393a25783a63616c69bf
:101b4c00625f726561645f7a6f6e65202d206661dd
:081b5c006c6965640a00c046d3
:020000040000fa
:020000040002f8
:101b6400f81b00201c000000000000008416002068
:101b74006c00000000000000b81d002004000000fc
:101b840000000000bc1d0020040000000100000053
:101b9400ffffffffb71b0020010000000000000052
:101ba400d71b00200100000000000000c01d002021
:101bb4000400000000000000c41d00200400000018
:101bc40000000000b71d002001000000000000001c
:101bd400c21e002001000000000000005c1a00206a
:101be4002800000000000000c31e002001000000c7
:101bf40000000000651d002001000000000000003e
:101c0400c81d00200400000000000000661d002024
:101c14000100000000000000cc1d002004000000b2
:101c24000100000016000000b01c00201400000099
:101c340000000000d01d002004000000000000008f
:101c4400d41d002004000000000000000219002040
:101c54000200000000000000d81d00200400000065
:101c640000000000c41e002002000000010000006b
:101c740000010000671d00200100000000000000ba
:101c8400bd1e00200100000000000000dc1d00203b
:101c94000400000000000000e01d0020040000001b
:101ca40000000000e41d002004000000000000000b
:101cb400e81d00200400000000000000ec1d0020ce
:101cc4000400000000000000681d0020080000005f
:101cd40000000000be1e0020010000000100000002
:101ce400ff000000f01d00200400000000000000c0
:101cf400f41d00200400000000000000f81d002076
:101d04000400000000000000fc1d0020040000008e
:101d140000000000bf1e00200100000001000000c0
:101d24000400000044140020b00000000000000083
:101d3400d21a00200200000000000000001e002053
:101d44000400000000000000041e00200400000045
:101d540000000000c61e002001000000000000007a
:101d6400081e002004000000000000000c1e0020db
:101d74000400000000000000c71e00200100000055
:101d840000000000c81e0020010000000000000048
:101d9400101e00200400000000000000141d00209c
:101da400100000000000000088120020fc00000069
:101db400000000007c190020300000000100000039
:101dc40000030000b0000000a08601000000000035
:101dd40000000000000000000000000000000000ff
:101de40000000000dc05000014000000c41c0020fa
:101df400681c002018000000010000000dfc030016
:101e040075fd0300554b03009d350300cbca030049
:101e140087fd0300441d00200c00000001000000a9
:101e240000000000681c002000000000c41c00200a
:101e3400140000000100000085dd0300b3df03008f
:101e440015d00300e5f90300f9500300141e002027
:101e54000400000000000000241d00201000000009
:101e640000000000d41a002024000000000000003c
:101e7400181e002004000000000000001c1e0020aa
:101e840004000000010000002b2f3d40201e002014
:101e940004000000010000002d5f0000f81a00207b
:101ea4002000000000000000181b0020200000009b
:101eb40000000000381b002020000000000000008b
:101ec40084130020c000000000000000ac190020b2
:101ed4002c00000000000000d81900202c00000095
:101ee40000000000c91e00200100000000000000e6
:101ef40004190020400000000000000084150020a8
:101f04008000000000000000300d002000020000ee
:101f140000000000701d0020080000000000000008
:101f2400781d0020080000000000000000000020d0
:101f34000008000000000000241e0020040000002f
:101f440000000000281e0020040000000000000023
:101f5400041600208000000000000000501d002036
:101f64000c00000000000000ca1e00200100000058
:101f740000000000cb1e0020010000000000000053
:101f8400801d00200800000000000000441900200b
:101f940038000000000000000008002020030000ba
:101fa40000000000f61b00200200000001000000f9
:101fb40001000000841a0020280000000000000036
:101fc400f41400209000000000000000341d0020e4
:101fd40010000000000000002c1e0020040000007f
:101fe40000000000981b00201f00000000000000fb
:101ff400b81b00201f00000000000000c01e0020cd
:102004000200000000000000141c00201c0000005e
:1020140000000000f8100020900100000000000003
:10202400f01600206400000000000000cc1e002018
:102034000100000001000000ff000000301e00202d
:102044000400000000000000341e00200400000012
:1020540000000000041a00202c0000000000000012
:10206400301c00201c000000000000004c1c00205c
:102074001c00000000000000801c0020180000006c
:1020840000000000cd1e0020010000000000000040
:10209400ce1e00200100000000000000cf1e002022
:1020a4000100000000000000d01e0020010000001c
:1020b40000000000d11e002001000000000000000c
:1020c400381e00200400000000000000d21e002082
:1020d4000100000000000000d31e002001000000e9
:1020e400000000003c1e002004000000010000006d
:1020f400ffffffffd41e00200100000000000000cd
:10210400401e00200400000001000000ffffffff4c
:10211400d51e00200100000000000000441e002025
:102124000400000001000000ffffffffd61e002096
:102134000100000000000000481e00200400000010
:1021440001000000ffffffffd71e00200100000078
:10215400000000004c1e00200400000001000000ec
:10216400ffffffffd81e0020010000000000000058
:10217400501e00200400000000000000d91e0020b2
:102184000100000000000000541e002004000000b4
:1021940000000000581e00200400000001000000a0
:1021a4007c1900205c1d00200900000000000000d4
:1021b400da1e00200100000000000000300f0020a3
:1021c400c801000000000000541700206400000053
:1021d40000000000ac1a00202600000000000000ef
:1021e400b01d00200700000001000000756e75732b
:1021f40065640000db1e00200100000000000000f8
:10220400dc1e00200100000000000000d81b00209c
:102214001e00000000000000b81700206400000049
:1022240000000000dd1e002001000000000000008e
:10223400de1e00200100000000000000df1e002060
:102244000100000001000000010000005c1e0020ed
:102254000400000001000000ffffffff601e0020db
:102264000400000001000000ffffffffe01e00204b
:102274000100000000000000e11e00200100000039
:1022840000000000881d002008000000000000007d
:10229400641e00200400000000000000981c0020c0
:1022a4001800000000000000681e00200400000068
:1022b40000000000d81c00201400000000000000f2
:1022c4006c1e00200400000001000000ffffffff5f
:1022d400701e00200400000001000000ffffffff4b
:1022e400741e00200400000001000000ffffffff37
:1022f400781e00200400000001000000ffffffff23
:10230400e21e00200100000000000000e31e002087
:102314000100000000000000e41e00200100000095
:1023240000000000e51e0020010000000000000085
:10233400e61e002001000000000000007c1e0020ba
:102344000400000000000000901d002008000000b0
:102354000100000053414d2e496f5400801e00209f
:102364000400000000000000e71e0020010000003f
:1023740000000000e81e0020010000000000000032
:10238400ec1c002014000000010000003c505245e9
:102394004649583e00000000000000000000000014
:1023a400e91e00200100000000000000ea1e0020d9
:1023b4000100000000000000841e00200400000052
:1023c40001000000ffffffff881e00200400000042
:1023d40001000000ffffffff8c1e0020040000002e
:1023e40001000000ffffffffeb1e002001000000c2
:1023f40000000000ec1e00200100000000000000ae
:10240400ed1e00200100000000000000ee1e002070
:102414000100000000000000001d00201400000066
:1024240001000000424141414141444431444241a0
:102434004141444431440000ef1e002001000000eb
:1024440000000000901e00200400000000000000b6
:10245400941e00200400000000000000f01e002074
:10246400010000000100000001000000981e00208f
:102474000400000001000000fffffffff11e002028
:1024840001000000000000009c1e00200400000069
:1024940001000000fffffffff21e0020010000000a
:1024a40000000000bc1e002001000000000000002d
:1024b400f31e00200100000000000000f41e0020b4
:1024c4000100000000000000a01e00200400000025
:1024d40000000000bc1800204600000000000000be
:1024e400a41e00200400000000000000a81e00201c
:1024f40004000000000000001c1800205000000030
:1025040000000000200b002010020000000000006a
:10251400581b002020000000010000000100000002
:1025240003000000000000000000000000000000a4
:102534000000000000000000981d0020981d0020ed
:102544000800000000000000ac1e00200400000091
:1025540000000000301a00202c00000000000000e1
:10256400a01d00200800000001000000b818002091
:10257400040000006c18002050000000000000005f
:10258400b01e00200400000000000000b41e002063
:102594000400000000000000781b00202000000060
:1025a4000100000001000000030000000000000022
:1025b4000000000000000000000000000000000017
:1025c400a81d0020a81d0020080000000000000035
:1025d400b81e0020040000000000000000000000fd
:1025e400000000002222222222222222222222224f
:020000040000fa
:020000040002f8
:1025f400a500000000000000000000000000000032
:1026040000000000000000000000000000000000c6
:1026140000000000000000000000000000000000b6
:1026240000000000000000000000000000000000a6
:102634000000000000000000000000000000000096
:042fd4000000c046f3
:020000040000fa
:020000040002f8
:102fd800f0b5fbb002af02003960e84bf0214900c0
:102fe8008c46bc4463441a70e54bec225200b91875
:102ff8000b603b68002b01d100f00cfcbb181b6870
:103008005b68002b01d100f005fcdc4bf02252007c
:103018009446bc4463441b78043b2e2b01d900f032
:10302800fbfb9a00d74bd3181b689f463b68ea21e5
:1030380049007a181360ec2040003b181b685b6855
:103048001b7a01225340dbb2002b01d000f0e6fbd3
:103058003b181b685b6800221a727b181b685b7838
:103068005bb2002b2bd13b181b685b687a1812687f
:1030780012789a727b181b681b78002b08d03b18b3
:103088001b685b685b7a180019f0d1fc00f0c8fb7c
:10309800ec2149007b181b685b6884229b58002b35
:1030a80001d100f0bdfb7b181b685b6884229c582b
:1030b8007b181868002300220021a047b0e3ec2306
:1030c8005b00fb181b685b6800229a72a8e33b68e8
:1030d800e8256d007a191360ec2464003b191b681d
:1030e8005b682d3318007b191b680433062219000e
:1030f8001cf069fe3b191b685b6833220121995457
:103108003b191b685b680c3318007b191b680a3372
:10311800202219001cf057fe7b191b680a3318007f
:103128001cf0bcfe020020003b181b685b68d1b293
:103138002c2299543b181b685b687a191268012184
:103148005156362299543b181b685b687a191268e5
:103158009178372299543b181b685b687a19126872
:10316800d178342299540600bb191b685b68012288
:10317800da72bb191b685b6884229b58002b00d14c
:1031880050e3bb191b685b6884229d58bb191868fb
:10319800bb191b685b685b7a0133d9b2bb191b6822
:1031a8005b689a7abb191b685b680c33d024ff34c0
:1031b8003c19a84703002370d024ff343b191b781f
:1031c800002b25d0bb191b685b685a7a0132d2b232
:1031d8005a72bb191b685b685c7a1cf0fffc030021
:1031e8009c420cd2bb191b685b685b7a180019f00b
:1031f8001efcbb191b685b680022da7212e3ec2321
:103208005b00fb181b685b6884220021995009e366
:10321800ec235b00fb181b685b6884220021995033
:1032280000e33b68e4225200b9180b60bb181b6826
:103238001b78012b1ed1ec2149007b181b685b68a9
:103248000122da717b181b685b689e229b5c012255
:103258005340dbb2002b21d07b181b685b68a0228f
:103268009b58002b1ad07b181b685b689d22012194
:10327800995413e0e4235b00fb181b681b78002bb0
:103288000cd1ec2149007b181b685b680022da71bd
:103298007b181b685b68502200219954ec21490077
:1032a8007b181b685b6888229b58002b00d1bbe207
:1032b8007b181b685b6888229c587b1818687b18e9
:1032c8001968e4256d007b191b681a787b191b683f
:1032d8005b78a047a8e23b68e22149007a181360ae
:1032e800ec235b00fb181b685b6888229b58002b4b
:1032f80000d19be27b181b681b785bb21a00163260
:1033080011d01a00163202dc173306d01de01a005d
:1033180015320ed0143312d017e0e023ff33fb1818
:1033280005221a7017e0e023ff33fb1803221a70f6
:1033380011e0e023ff33fb1801221a700be0e023b1
:10334800ff33fb1806221a7005e0e023ff33fb1851
:1033580007221a70c046ec2149007b181b685b687d
:1033680088229c587b1818687b181968e023ff335b
:10337800fb181b780022a04758e2c04627feffff33
:10338800141d0020705c03003b68e0225200ba184c
:103398001360ec2149007b181b685b685b7901228c
:1033a8005340dbb2002b05d07b181b685b689d225d
:1033b80001219954e02149007b181b6803331b78cd
:1033c8001a067b181b6802331b781b041a437b18e8
:1033d8001b6801331b781b021a437b181b681b7878
:1033e8001900ec2040003b181b685b680a43a021c9
:1033f8005a5001007b181b685b68b4229b58002b4d
:1034080000d115e27b181b685b68b4229a587b18b8
:1034180018687b181b685b68a0215b5819009047e7
:1034280006e23b68de225200b9180b60bb181b6825
:10343800180016f0a3fa0300dc2040003a181360c5
:10344800ec2149007b181b685b688c229b58002b79
:1034580000d1efe17b181b685b688c229b587a18b7
:1034680012683918096810009847e3e1ec235b00fb
:10347800fb181b685b68bc229b58002b00d1dbe162
:103488003b68da2464003a1913603b191b6818007a
:103498001cf004fd0300d9b2eb4bf0225200944615
:1034a800bc44634420229954e74bf02252009446ce
:1034b800bc44634420229b5c202b00d9bee10c2530
:1034c8007b192022002118001cf0e0fc3b19196828
:1034d800dd4bf02252009446bc44634420229b5c9e
:1034e8001a007b1918001cf06efc3b191b6862223d
:1034f8009a5cd64bf02149008c46bc4463441a7050
:103508003b191b6862229b5c022b27d13b191b6865
:10351800213318001cf0c2fc0300dab2cb4bf021b7
:1035280049008c46bc4463441a7138257b1905331d
:103538004022002118001cf0a9fc3b191b6821330c
:103548001900c24bf02252009446bc4463441b79d4
:103558001a007b19053318001cf035fcec256d00aa
:103568007b191b685b68bc229c587b191868da2396
:103578005b00fb181b6863229b5c5a425341dbb219
:103588003822ba180c217918a0477b191b685b6888
:10359800bc22002199504fe13b68d8256d007a196b
:1035a80013607b191b6818001cf078fc0200ec20e3
:1035b80040003b181b685b68d1b2712299543b18d4
:1035c8001b685b6871229b5c202b00d938e10400e2
:1035d8003b181b685b6851332022002118001cf03f
:1035e80055fc2200bb181b685b68513318007b1917
:1035f80019681400bb181b685b6871229b5c1a0071
:103608001cf0e1fb20003b181b685b687a19126804
:103618002121515c802299547b191b6825229b5ccf
:103628001a067b191b6824215b5c1b041a437b194f
:103638001b6823215b5c1b021a437b191b68222130
:103648005b5c19003b181b685b680a435a670400f7
:103658003b181b685b68783318007b191b68263396
:10366800062219001cf0affb3b191b685b687e2221
:10367800012199543b191b685b6850220121995418
:1036880021007b181b685b6890229b58002b00d197
:10369800d8e07b181b685b6890229c580a00bb180e
:1036a8001868bb181d68bb181b685b6851331e007f
:1036b800bb181b685b6874218c469c44bb181b684c
:1036c8005b6880229b5cd8225200ba1812682c21b1
:1036d800525601920093634632002900a047b1e098
:1036e8003b68d6225200b9180b60ec2040003b180a
:1036f8001b685b68ba181268002151564822995411
:103708003b181b685b6894229b58002b00d19fe0f4
:103718003b181b685b6894229a5804003b19186888
:103728003b191b685b6848215b56190090473b1999
:103738001b685b6894220021995089e03b68d42477
:1037480064003a191360ec235b00fb181b685b6884
:1037580098229b58002b00d17ce00c26bb1918003e
:1037680019f08af925007b191b689c1c7b191b68ba
:10377800023318001cf092fb0300dab2bb192100d7
:10378800180016f0dbfc7b191b685a78bb1911006e
:10379800180018f03dfa7b191b681b78012b02d022
:1037a800022b06d01ae03823fb1818001bf09efce9
:1037b80021e0d4225200bb181b6823331c00bb181d
:1037c8001b68233318001cf069fb0300dab23823a6
:1037d800fb182100180017f0e7fd0ce0ec21490068
:1037e8007b181b685b6898229b587a18106800221f
:1037f800002198472fe0ec2149007b181b685b6883
:1038080098229b587a1810683822ba180c2179180f
:1038180098471fe0c0461ee0c0461ce0c0461ae0bc
:10382800c04618e0c04616e0c04614e0c04612e0a4
:10383800c04610e0c0460ee0c0460ce0c0460ae0b4
:10384800c04608e0c04606e02cfeffff58feffff1a
:0c385800c04600e0c046bd4679b0f0bd9f
:020000040000fa
:020000040002f8
:103864005b7370695f636d645d3a204661696c6582
:103874006420636d642077726974652c20627573ab
:10388400206572726f722e2e2e0d0a005b737069a2
:103894005f636d645f7273705d3a204661696c6545
:1038a4006420636d6420726573706f6e736520723b
:1038b4006561642c20627573206572726f722e2e9e
:1038c4002e0d0a005b7370695f636d645f727370c1
:1038d4005d3a204661696c656420636d642072659d
:1038e40073706f6e736520726561640a0000c04670
:1038f4005b7370695f646174615f726561645d3a92
:10390400204661696c65642064617461207265732a
:10391400706f6e736520726561642c20627573200c
:103924006572726f722e2e2e0d0a00005b73706921
:103934005f646174615f726561645d3a20466169c8
:103944006c6564206461746120726573706f6e735a
:103954006520726561642e2e2e2825303278290d5b
:103964000a00c0465b7370695f646174615f72656d
:1039740061645d3a204661696c65642064617461c8
:1039840020626c6f636b20726561642c20627573b6
:10399400206572726f722e2e2e0d0a005b73706991
:1039a4005f646174615f726561645d3a2046616958
:1039b4006c6564206461746120626c6f636b204386
:1039c400524320726561642c2062757320657272a3
:1039d4006f722e2e2e0d0a005b7370695f64617422
:1039e400615f77726974655d3a204661696c6564ec
:1039f400206461746120626c6f636b20636d64206a
:103a040077726974652c20627573206572726f72a7
:103a14002e2e2e0d0a00c0465b7370695f646174bc
:103a2400615f77726974655d3a204661696c6564ab
:103a3400206461746120626c6f636b2077726974b7
:103a4400652c20627573206572726f722e2e2e0d96
:103a54000a00c0465b7370695f646174615f77726a
:103a64006974655d3a204661696c656420646174bb
:103a74006120626c6f636b204352432077726974d8
:103a8400652c20627573206572726f722e2e2e0d56
:103a94000a00c0465b7370695f77726974655f7210
:103aa40065675d3a204661696c656420636d642cca
:103ab4002077726974652072656720282530386c18
:103ac40078292e2e2e0d0a005b7370695f77726958
:103ad40074655f7265675d3a204661696c65642050
:103ae400636d6420726573706f6e73652c207772da
:103af4006974652072656720282530386c78292e12
:103b04002e2e0d0a0000c0465b7370695f777269e0
:103b140074655f626c6f636b5d3a204661696c65c6
:103b24006420636d642c20777269746520626c6f05
:103b3400636b20282530386c78292e2e2e0d0a0030
:103b44005b7370695f77726974655f626c6f636bd6
:103b54005d3a204661696c656420636d642072651a
:103b640073706f6e73652c20777269746520626c54
:103b74006f636b20282530386c78292e2e2e0d0a81
:103b84000000c0465b7370695f77726974655f6239
:103b94006c6f636b5d3a204661696c656420626c8e
:103ba4006f636b20646174612077726974652e2e73
:103bb4002e0d0a005b7370695f77726974655f62ca
:103bc4006c6f636b5d3a204661696c656420627555
:103bd40073206572726f722e2e2e0d0a0000c0467d
:103be4005b7370695f77726974655f626c6f636b36
:103bf4005d3a204661696c65642064617461207279
:103c04006573706f6e736520726561642c2025780e
:103c14002025782025780d0a0000c0465b73706962
:103c24005f726561645f7265675d3a204661696cc5
:103c3400656420636d642c2072656164207265671d
:103c440020282530386c78292e2e2e0d0a00c046e7
:103c54005b7370695f726561645f7265675d3a206a
:103c64004661696c656420636d6420726573706f6e
:103c74006e73652c20726561642072656720282547
:103c840030386c78292e2e2e0d0a00005b73706973
:103c94005f726561645f7265675d3a204661696c55
:103ca4006564206461746120726561642e2e2e0d3a
:103cb4000a00c0465b7370695f726561645f626c21
:103cc4006f636b5d3a204661696c656420636d6463
:103cd4002c207265616420626c6f636b2028253030
:103ce400386c78292e2e2e0d0a00c0465b7370693d
:103cf4005f726561645f626c6f636b5d3a204661fd
:103d0400696c656420636d6420726573706f6e7393
:103d1400652c207265616420626c6f636b202825ba
:103d240030386c78292e2e2e0d0a00005b737069d2
:103d34005f726561645f626c6f636b5d3a204661bc
:103d4400696c656420626c6f636b206461746120cc
:103d5400726561642e2e2e0d0a00c0465b6e6d5f87
:103d64007370695f696e69745d3a204661696c6558
:103d74006420696e7465726e616c20726561642082
:103d840070726f746f636f6c20776974682043522c
:103d940043206f6e2c207265747279696e67207788
:103da40069746820435243206f66662e2e2e0d0ad6
:103db4000000c0465b6e6d5f7370695f696e697405
:103dc4005d3a204661696c656420696e7465726e43
:103dd400616c20726561642070726f746f636f6cc4
:103de4002e2e2e0d0a00c0465b6e6d5f7370695fe8
:103df400696e69745d3a204661696c656420696e18
:103e04007465726e616c2077726974652070726f6c
:103e1400746f636f6c207265672e2e2e0d0a00007e
:103e24005b6e6d5f7370695f696e69745d3a20469d
:103e340061696c20636d64207265616420636869e4
:103e4400702069642e2e2e0d0a00c04652657365db
:103e54007420616e64207265747279202564202553
:103e64006c780d0a0000c046526573657420616e5b
:103e74006420726574727920256420256c7820256d
:103e84006c780d0a0000c046526573657420616e3b
:103e94006420726574727920256420256c7820254d
:043ea400640d0a009f
:020000040000fa
:020000040002f8
:103ea800f0b5bdb002af3a60fb1d021c1a703b1d95
:103eb8000a1c1a80fb1d1b78412b03d0fb1d1b78a5
:103ec800542b1ed1d02439193868002304220cf051
:103ed8007dfa031e00d0c7e221007b1801229a5602
:103ee800cc243b191a70b94b1b68002b00d1bbe2dc
:103ef800b64b1b687a18002010563a1901219847ca
:103f0800b2e2fb1d1b78422b1ed1c8243919386830
:103f1800002304220cf05afa031e00d0abe2210061
:103f28007b1801229a56c4243b191a70a74b1b68a8
:103f3800002b00d19fe2a54b1b687a180020105671
:103f48003a190221984796e2fb1d1b78432b00d0b3
:103f58007fe0b8243919386800230c220cf036faaf
:103f6800031e00d087e23b195b7a5bb2002b50db63
:103f78003b195b7a5bb20a2b4bdc3b191b7a5bb2b1
:103f880019003b195b7a5bb21800914a0b01d318f0
:103f98000b331b78d9b28e4a0301d3180b330a1c92
:103fa8001a703b195b7a5bb2894a1b01d3180a3332
:103fb80001221a703b195b893a19527a52b21000e1
:103fc800083b99b2824a0301d31808330a1c1a80a5
:103fd800804b1b889bb201339ab27e4b1a807d4b73
:103fe8001b889bb2002b06d17a4b1b889bb20133ee
:103ff8009ab2784b1a80b823fb185b7a5bb2180028
:10400800744b1b8899b2724a0301d31806330a1cf1
:104018001a80b8203b1809229a56a4217b181a70d6
:104028007b1802229a803b185a887b18da803b1842
:104038005a687b189a60654b1b68002b00d11ae2fe
:10404800624b1b683a18082010567a1804219847c2
:1040580011e2fb1d1b78442b08d0fb1d1b784b2b52
:1040680004d0fb1d1b78572b00d093e09c23fb1832
:1040780000221a605a60e6217b1808221a80fb1d6c
:104088001b78572b02d07b1804221a80e623fb18d2
:104098001a889c243919386800230cf097f9031ef4
:1040a80000d0e3e121007b181b785bb2002b00da1b
:1040b800dce17b181b785bb20a2b00ddd6e1e52436
:1040c8003b1905221a707b1800229a5698203b1833
:1040d8001a707b1801229a563b185a703b181b78a5
:1040e8005bb23b4a1b01d31808331b889bb2002bd9
:1040f80002d03b190a221a709c243b195b785bb2e8
:10410800002b1bd13b195b8898257a19127852b27b
:104118001000083b99b22e4a0301d31808330a1c31
:104128001a807b191b785bb218003b191979284a49
:104138000301d3180d330a1c1a7019e098243b198f
:104148001b785bb218009c257b199978204a0301db
:10415800d3180e330a1c1a703b191b785bb218006f
:104168007b19d9781a4a0301d3180f330a1c1a701d
:10417800164b1b68002b00d178e1144b1b68982163
:104188007a18002010567c18e522ba1811782200f7
:1041980098476be1fb1d1b784a2b1fd10c2439195a
:1041a8003868002344220cf011f9031e00d062e1a4
:1041b800094b1b68002b00d15de1074b1a683b19be
:1041c800196c3b191800904755e1c046001e0020a5
:1041d80044140020d21a0020041e0020fb1d1b7866
:1041e800462b08d0fb1d1b78482b04d0fb1d1b78e1
:1041f8004d2b00d0b9e0e4217b1806221a70fb1d74
:104208001b78482b02d17b1809221a70dc257b19f0
:1042180010221a807b191a888824391938680023d3
:104228000cf0d4f8031e00d022e121007b181b7b80
:104238005bb2002b00da1be17b181b7b5bb20a2bfd
:1042480000dd15e1da26bb1900221a80d9203b18b7
:104258007a18127b1a70bb197a18d2891a803b18ff
:104268001b785bb2864a1b01d3180c3300221a70e4
:10427800d6243b197a1812891a80d423fb187a1885
:1042880052891a807b185a887023fb185a817b1828
:104298005a6870217b18da603b181b785bb2784a41
:1042a8001b01d31806331b889bb2ba1912889a428d
:1042b8003fd13b1900229b5e002b1fdd3b190026d6
:1042c8009a5f3b1d1b889a4218dad423fb181b8877
:1042d8003a68d3183b607b193a1912881a803c68ef
:1042e800e423fb181a7879183b18002018567b1914
:1042f8001b88009323000af0f7fcb9e070217b18b3
:10430800d622ba1812889a807b1800221a605d4b50
:104318001b68002b00d1abe05a4b1b687c18e422c9
:10432800ba181178d922ba180020105622009847d6
:104338009ee0dc23fa183b1d12881b889a4200d3a2
:1043480096e001230022002100200cf03ff8031e14
:1043580000d18de04c4b1b68002b00d188e04a4b04
:104368001b684a4a1000984782e0fb1d1b78452bc2
:1043780007d0fb1d1b78472b03d0fb1d1b784c2b4c
:104388004ed1e3217b1807221a70fb1d1b78472b9f
:1043980002d17b1808221a7064243919386800235e
:1043a80008220cf013f8031e64d121007b181b7837
:1043b8005bb2002b5edb7b181b785bb20a2b59dce7
:1043c800e0203b1800221a80df257b197a18127822
:1043d8001a703b187a1892881a807b1802229a5e03
:1043e8006e217b181a807b191b785bb2244a1b014b
:1043f800d31806331b889bb23a1812889a4239d1cf
:10440800204b1b68002b35d01e4b1b687c18e32201
:10441800ba1811787a19002010562200984729e016
:10442800fb1d1b78522b26d15024391938680123db
:1044380014220bf0cbff031e1dd121007b185a68f4
:10444800134b1b689a4216d1124b1b68002b12d0d3
:10445800104b1c680a00bb181868bb189968bb1871
:104468001b7c1a00a04706e0c04604e0c04602e0f4
:10447800c04600e0c046c046bd463bb0f0bdc046a1
:1044880044140020001e0020101e0020308303006a
:084498000c1e0020081e00208c
:020000040000fa
:020000040002f8
:1044a000b0b5d8b000aff860b9607a600023ae2232
:1044b0005200ba1813600023ac225200b9180b60e6
:1044c0000023ba1813609ae2ac235b00fb181b6848
:1044d0009b01ba68d318a8225200ba1813600023af
:1044e000ae225200ba1813606de0ae2040003b18b7
:1044f0001b68a82464003a191268d2183b181b687c
:1045000003331178854ab0256d00ac46bc44624443
:10451000d1543b181b6801333a191268d2183b1862
:104520001b68023311787d4ab0256d00ac46bc444f
:104530006244d1543b181b6802333a191268d218ee
:104540003b181b6801331178744ab0256d00ac46e6
:10455000bc446244d1543b181b6803333a191268b7
:10456000d31819786d4bb0225200ba18d2183b18e4
:104570001b68d3180a1c1a703b181b68002b00da42
:1045800003339b101a00ae235b00fb181b68002b43
:1045900000da03339b101800604bb02149008c46b1
:1045a000bc4463449200d1585c4bb0225200944604
:1045b000bc4463448200d150ae225200bb181b6839
:1045c0000433ba181360ae235b00fb181b683f2b43
:1045d0008bdd1023aa225200ba18136071e0aa24be
:1045e00064003b191b680f3b1a004c4bb02149007b
:1045f0008c46bc4463449200d358a62040003a182d
:1046000013603b181b680722d3411a003b181b6834
:104610001221cb415a4001007b181b68db08534034
:10462000a4256d007a1913603b191b689a1e3b4b39
:10463000b02040008446bc4463449200d358080034
:104640003a1813603b181b681122d3411a003b181b
:104650001b681321cb415a403b181b689b0a5340ef
:10466000a22040003a1813603b191b68103b1a0047
:104670002a4bb02149008c46bc4463449200d25876
:104680007b191b68d2183b191b68d91f234bb02517
:104690006d00ac46bc4463448900cb58d2183b182b
:1046a0001b68d1181d4bb02252009446bc44634491
:1046b0003a1912689200d1503b191b6801333a191c
:1046c0001360aa235b00fb181b683f2b87d90023cc
:1046d000ae225200ba18136016e0fb68ae2040000c
:1046e0003a18126822329200d1580d4bb022520073
:1046f0009446bc4463443a1812689200d1503b1867
:104700001b6801333a181360ae225200bb181b68b5
:10471000072be2dd0023ba18136039e1d4feffff56
:10472000b4feffffbc4bb02252009446bc4463442d
:104730001b680222d3411a00b74bb02149008c46b6
:10474000bc4463441b680d21cb415a40b24bb0219d
:1047500049008c46bc4463441b681621cb4153403e
:10476000a42040003a181360ab4bb022520094468c
:10477000bc4463441a68a84bb02149008c46bc4431
:1047800063445968a44bb0246400a446bc44634409
:104790009b684b401a40a04bb02149008c46bc445a
:1047a000634459689c4bb0246400a446bc446344f1
:1047b0009b680b405340a02149007a1813603b18b6
:1047c0001a687b181b68d3189e2464003a1913607a
:1047d000914bb02252009446bc4463441b690622ac
:1047e000d3411a008c4bb02149008c46bc44634431
:1047f0001b690b21cb415a40874bb02149008c46a5
:10480000bc4463441b691921cb415340a2204000a2
:104810003a181360804bb02252009446bc44634463
:104820001a697d4bb02149008c46bc4463445b69e6
:104830001a40794bb02149008c46bc4463441b6943
:10484000d943754bb0256d00ac46bc4463449b69ad
:104850000b4053409c2149007a1813606e4bb022e4
:1048600052009446bc446344da693b181b68d21872
:104870007b181b68d218694bae20400039180968b4
:104880008900cb58d218664bb02149008c46bc44f5
:104890006344391809688900cb58d3189a21490014
:1048a0007a1813605c4bb02252009446bc446344b7
:1048b0009a69594bb0256d00ac46bc446344da613b
:1048c000554bb02252009446bc4463445a69524b43
:1048d000b0256d00ac46bc4463449a614e4bb02297
:1048e00052009446bc4463441a694b4bb0256d009a
:1048f000ac46bc4463445a61474bb02252009446d4
:10490000bc446344da687b181b68d218424bb0255c
:104910006d00ac46bc4463441a613f4bb022520068
:104920009446bc4463449a683b4bb0256d00ac464a
:10493000bc446344da60384bb02252009446bc4415
:1049400063445a68344bb0256d00ac46bc446344a4
:104950009a60314bb02252009446bc4463441a68ba
:104960002d4bb0256d00ac46bc4463445a607b18a7
:104970001a683b191b68d218274bb02149008c4696
:10498000bc4463441a603b181b6801333a18136037
:10499000ae225200bb181b683f2b00dcc2e600238e
:1049a000ba1813601ee0fb68ae2149007a1812683d
:1049b00022329200d258184bb02040008446bc44aa
:1049c00063440800791809688900cb58d118fb683e
:1049d0003a18126822329200d1503b181b680133fa
:1049e0003a181360ae235b00fb181b68072bdadd57
:1049f000ac225200bb181b680133ba181360ac23f9
:104a00005b00fb181a687b689a4200d25ce5c046de
:104a1000bd4658b0b0bdc046b4feffffcc2a03006f
:044a2000d4feffffc2
:020000040000fa
:020000040002f8
:104a2400b0b5b2b002af3a60fb1d021c1a703b1d58
:104a34000a1c1a80fb1d1b782c2b15d1b0243919a4
:104a44003868002304220bf0c3fc031e00d035e2b7
:104a5400c54b1b68002b00d130e2c34b1b683a19cd
:104a640011002c20984729e2fb1d1b781b2b15d124
:104a7400a82439193868002308220bf0a9fc031e66
:104a840000d01be2b84b1b68002b00d116e2b64bda
:104a94001b683a1911001b2098470fe2fb1d1b7875
:104aa400062b15d10c2439193868012330220bf058
:104ab4008ffc031e00d001e2ab4b1b68002b00d11e
:104ac400fce1a94b1b683a19110006209847f5e14f
:104ad400fb1d1b780e2b00d1f0e1fb1d1b78322b44
:104ae40015d1902439193868002318220bf070fc72
:104af400031e00d0e2e19c4b1b68002b00d1dde1da
:104b0400994b1b683a19110032209847d6e1fb1dd6
:104b14001b783d2b13d138680123002200210bf0b0
:104b240057fc031e00d0c9e18f4b1b68002b00d13a
:104b3400c4e18d4b1b6800213d209847bee1fb1d5d
:104b44001b782f2b1bd10c243b1964220021180045
:104b54001bf09ef939193868002364220bf038fce5
:104b6400031e00d0aae1804b1b68002b00d1a5e1f5
:104b74007d4b1b683a1911002f2098479ee1fb1dbd
:104b84001b78342b31d18c25791938680023042201
:104b94000bf01efc031e00d090e1744b1b68002b2d
:104ba40018d0724b1c6828003b181b681b0edbb224
:104bb40019003b181b681b0cdbb21a003b181b685e
:104bc4001b0adbb21d003b181b68dbb2684800936c
:104bd4002b00a047644b1b68002b00d16ee1624b95
:104be4001b6800213420984768e1fb1d1b78112bba
:104bf4001dd1604b00221a708824391938680023ab
:104c040004220bf0e5fb031e00d057e121007b18c2
:104c14001a78594b1a70544b1b68002b00d14de184
:104c2400514b1b687a1811001120984746e1fb1d6f
:104c34001b78132b15d10c243919386800232c2226
:104c44000bf0c6fb031e00d038e1474b1b68002b5a
:104c540000d133e1444b1b683a19110013209847e3
:104c64002ce1fb1d1b78042b15d1b42439193868a9
:104c7400002304220bf0acfb031e00d01ee13a4bd0
:104c84001b68002b00d119e1374b1b683a1911003e
:104c94000420984712e1fb1d1b78652b15d1b42421
:104ca40039193868002304220bf092fb031e00d04c
:104cb40004e12d4b1b68002b00d1ffe02a4b1b683d
:104cc4003a19110065209847f8e0fb1d1b78092b61
:104cd40015d10c2439193868012364220bf078fbb0
:104ce400031e00d0eae0204b1b68002b00d1e5e056
:104cf4001d4b1b683a19110009209847dee0fb1d83
:104d04001b782a2b15d184243919386801230422ed
:104d14000bf05efb031e00d0d0e0134b1b68002b8e
:104d240000d1cbe0104b1b683a1911002a20984798
:104d3400c4e0fb1d1b78272b20d180243919386847
:104d4400002304220bf044fb031e00d0b6e0064b04
:104d54001b68002b00d1b1e0034b1b683a1911000a
:104d640027209847aae0c046c81d0020101e002036
:104d7400d46f0200661d0020c31e0020fb1d1b789b
:104d8400202b22d1782439193868002308220bf00b
:104d94001ffb031e00d091e03b68083318003b1949
:104da40019683b199a8801230bf012fb031e00d0eb
:104db40084e0444b1b68002b00d17fe0414b1b680f
:104dc4003a1911002020984778e0fb1d1b781d2b11
:104dd40000d066e0742439193868002304220bf0eb
:104de400f7fa031e00d069e0bc23fb183a19528875
:104df4001a803b191a887023fb185a80324b1b689f
:104e0400002b5bd0314b1b68002b57d0304b1b88d9
:104e1400002b53d0bf217b1801221a7070203b183d
:104e24005a882b4b1b889a4207d97b1800221a7088
:104e3400274b1a883b181a8004e070217b185a8883
:104e44007b181a80bc257b191a883b68d0181f4b25
:104e5400196870243b191a88bf23fb181b780bf0c0
:104e6400b7fa031e29d120003b185a883b181b8827
:104e7400d31a9ab23b185a803b1819887b197a19ad
:104e840012888a181a80104b1c68104b1b68050086
:104e94003a1819001d20a0477b195b88002bb9d153
:104ea4000ce00c4b1b68002b08d00a4b1b68fa1d46
:104eb4001178094a1000984700e0c046c046bd4634
:104ec40030b0b0bdc81d0020d01d0020d41d00206e
:0c4ed40002190020101e0020f46f0200e4
:020000040000fa
:020000040002f8
:104ee000f0b599b011930b68139009934b680d912d
:104ef00005938b680a930b691693cb680393136829
:104f0000089353680898079300220023079918f024
:104f100011fc00280bd1099b5b073bd40823099a9d
:104f20001a400a9b0b9204930fd0202306e08022a4
:104f300012069446079b634407932d23039a13702c
:104f40000a9b013b049301230b930b99079b8c460f
:104f5000039a089962445b0010925b08c04a0029da
:104f60001ad1934218d1119bbe4c413b2100192b01
:104f700000d9211d10981af0f3ff201d1af092ff9e
:104f8000099b0200009303990a9b139814f072fd89
:104f900019b0f0bd2b23d1e7934203d811d1089b60
:104fa000002b0ed0119baf4c413b2100192b06d892
:104fb000083110981af0d4ff20000c30dee70c31d5
:104fc000f7e7002200230898079919f0b3fa0026a2
:104fd000a54f002833d00023029311981af0a0ffa8
:104fe000c3b20c93059b002b00dacae10c9b06931d
:104ff000672b00d045e1059b002b00d1bce1029b53
:10500000043304db029b059a934200da34e1652302
:105010004de126002f00029b013302930022934ba7
:105020003000390009f0f6fc089a079b04000d00d7
:1050300018f060fb0028ecd00024012524e0029049
:10504000ece7029b1a008a4b9a4212da002c10d12c
:105050000022884b0898079909f0dcfc0022089090
:10506000079130003900834b09f0d4fc2c00060076
:105070000f007e4b30003900002210f0fdfa0600d0
:105080000f00029b013b029332003b0008980799f6
:1050900018f050fb0028d4d19fe732003b0008985d
:1050a0000e9910f0e9fa11f0f5fb1490159119f032
:1050b000a1f81022099b1340034300d090e00c9b01
:1050c000672b00d08ce0002c00db9ae001358020bb
:1050d000000684460e99089a61440b0014981599ad
:1050e0000092019332003b001af004ff80231b065c
:1050f000cb1808900e933000390000225b4b10f063
:10510000bbfa06000f00013c059b1293179b9c42c3
:1051100006d00d9b059a1b691493053b9342bcd89e
:10512000079b002b09d1099bdb0606d5059b039a3b
:10513000013305932e2312995354059a0025944662
:10514000039b634407931d70069b652b2ed1169b12
:105150005c1e039b1d55029bab4202da5b4202932d
:10516000013503260a27169bf61a029b002b60d1f5
:105170003319002b5ddc621e2d23002d00d1023b74
:105180000399023c8b54119b413b192b01d84523b9
:105190000693039b1919069b0b70049b023b049317
:1051a000059ba34202da07981af0dafe0323099a54
:1051b0001340022b12d1049b002b0fdd03981af031
:1051c00071fe039b049a9b180b9a824242dd049a5b
:1051d000302110981af05efe00230a930398cde662
:1051e000079b002b0dd1002c0bda059b039a013392
:1051f0000593049b1299013b04932e2353542d3b9a
:105200000793059b3021ea18944602e0039ad15493
:1052100001339c45fad16246059b303001335b195e
:105220000593049b013b5b1b0493039b002598544f
:105230004de70298390007f003fc039b3031013c35
:1052400019550298390007f015fb049b0290013ba9
:1052500004938ae7039a125c1a540138b4e7c046f3
:105260000000f07fd4fe03000000f03f0000244067
:10527000d4feffff00005043029b002b16da66238a
:105280000693059b01330593069b662b10d1029b69
:10529000002b03da002300263d4f02930c9b672b63
:1052a00004d0029a059b94466344059366230693b3
:1052b00000230e960f97089c079d12930e9a0f9b42
:1052c0002000290010f0d8f911f0e4fa149015919b
:1052d00018f090ff8021220009066b1817900092a9
:1052e0000193149815990e9a0f9b1af003fe8023d0
:1052f0001b06cd180022274b04000e980f9910f0c2
:10530000bbf9129b0e900f9101331293129a059bd9
:105310009342d3d10022204b09f07cfb0e900f91d9
:1053200002000b002000290018f004fa00280ad11e
:105330000e9a0f9b2000290019f0fcf8002806d0d7
:10534000179bdb0703d4002300240e930f940e9abf
:105350000f9b0898079907f043fd069b08900e9154
:10536000029c652b00d100240025059b0795e31abc
:1053700017930b9b0593c7e6012305933fe606238e
:10538000fbe70c9b672bfad006930623059378e77f
:0c5390000000f03f00002440000014402a
:020000040000fa
:020000040002f8
:10539c00f0b51c000b6897b008934b6813900d93f5
:1053ac008b6809930b690e93cb6802931368069371
:1053bc0053680698059300220023059918f0b4f958
:1053cc0000280ad1089b5b073cd40820089b099a4b
:1053dc00034004930ed0202306e08022120694464c
:1053ec00059b634405932d23029a1370099b5a1e47
:1053fc000123049302990498059b081806995b00f5
:10540c00413c5b080c9400291ed1b5498b421bd141
:10541c00029a049b944663441800b24c0c9b2100e6
:10542c00192b00d9211d1af095fd201d1af034fd01
:10543c00089b020000930299099b139814f014fb2b
:10544c0017b0f0bd2b23cfe7a5498b4203d80fd162
:10545c00069b002b0cd0a34c0c9b2100192b05d8c0
:10546c0008311af077fd20000c30dfe70c31f8e73b
:10547c00049b591c302303700c982833192800d92d
:10548c00203304980230049002984354931e0793df
:10549c00002200230698059919f046f8002800d13f
:1054ac006ee100230026904f03930d9b1293002b6b
:1054bc0001da1823129300230a960b97069d059c7c
:1054cc00109328000a9a0b9b210010f0cff811f0d2
:1054dc00dbf90a9a0b9b1490159109f095fa0200ce
:1054ec000b00280021001af0c7fc804b05000c00b3
:1054fc000a980b99002209f087fa109b0a900b91dd
:10550c0001330f930d9b002b07da00220023280098
:10551c00210019f009f8002806d1129b109a934229
:10552c0000dd31e101330f9300220a980b99704b87
:10553c0009f06afa0a900b9102000b002800210076
:10554c0018f0f2f800280dd10a9a0b9b28002100c4
:10555c0018f0eaff002809d01498159918f044fea9
:10556c00c30703d4002300240a930b940a9a0b9bc1
:10557c000698059907f02efc1291490006904908ef
:10558c00002803d1564b994200d141e70025049cd9
:10559c000a9505950e9b053ba34230dd3b0032007e
:1055ac000698129910f062f811f06ef910901191a2
:1055bc0018f01afe031e00d0e8e0059a002a00d16c
:1055cc00e4e001353200109811993b0009f01cfa07
:1055dc0002000b00069812991af04efc002206905d
:1055ec001291424b3000390009f00efa059b06006f
:1055fc0001330593059a0f9b0f009342cad10a9b66
:10560c00002b1cd1029b1b19002d00d10ae10d9a15
:10561c00002a00dc06e1089ad20700d502e12e220e
:10562c0002991a702a198a18302159700133934241
:10563c00fbd12c19ed43079b0134eb180793002683
:10564c00029b1b191e7005930e9b5d1e029b5e55e3
:10565c00039bb34202da5b420393013602230a270f
:10566c000e9a9b1a0693039b002b00d0c4e0069b5a
:10567c005b19012b00d1bfe06a1e2d23002e00d137
:10568c00023b0299023d8b540c9a5023192a00d9e3
:10569c002033029a51190b70ac4202da05981af0b9
:1056ac0059fc0323089a1340022b17d1079c023c88
:1056bc00002c13dd02981af0effb029b1b19049ac5
:1056cc00904200dba9e01300029a30219446634417
:1056dc00180022001af0d8fb002309930298a5e6c3
:1056ec000000f07fc4fe03000000f03f0000b03f5c
:1056fc000000204026002f00039b0133039332004f
:10570c003b003000390007f065fb04000d0002007f
:10571c000b000698059918f007f80028ead032001b
:10572c003b000698059917f0ffff002800d1bce656
:10573c000022404b3000390009f066f900220023aa
:10574c0018f0f2fe00280fd000223b4b300039003d
:10575c0009f05af9002206000f0006980599364bfd
:10576c0009f052f906900591324b300039000022b5
:10577c0009f04af9039b0600013b0f000393cee7a7
:10578c00039000262d4fbae70f9b99e60a9a002a40
:10579c000bd1059a002a08d0079a0299013a079270
:1057ac002e220a552d3a01340a92291922008c46d0
:1057bc0003e030210298815401329445f9d118004c
:1057cc00029a013462441492079a6419013a521bea
:1057dc0007925730092b01dc303318000c9b192b26
:1057ec0006d820230343613b192b01d81af099fbef
:1057fc00149b00251870e5e60398390007f01af998
:10580c00029b3031013d59550398390007f02cf8b3
:10581c00079b0390013b079325e7029a125c1a54ed
:10582c0001384ce7089ad20600d408e72e2201343e
:10583c001a7004e70000e03f000050430000f03f06
:020000040000fa
:020000040002f8
:10584c00f0b58fb002af2f23fb1800221a70c046a0
:10585c00d14bbb622623fb18012252421a80012035
:10586c0019f051fa03003b62bb6a1b78002b0cd079
:10587c00bb6a1b78013bdab2bb6a1a703b6a19002f
:10588c00012018f0f7fe012305e03b6a1900012006
:10589c0018f0f0fe0023002bdad02f257c190c23f6
:1058ac00fb18be4a1900100019f082fc030023708b
:1058bc0029007b181b785bb2002b00d0d1e1fb6870
:1058cc000122134000d1c1e1fb6801229343fb602c
:1058dc00fb680d007c18b14a1900100019f078fc17
:1058ec000300237029007b181b785bb2002b00d0bf
:1058fc00c1e1ab4b01229a70fb689b089ab22c2039
:10590c003b181205120d1a803b181b88002b00d176
:10591c008ee100237b600d007c183b1da14a190011
:10592c00100019f045fc030023707b191b785bb247
:10593c00002b0ad09c4b1b68002b00d19de19a4b8d
:10594c001b689a4a1000984797e17a68944b5a6002
:10595c002c23fb181a88924b9a607b682f26bc1953
:10596c00082579190422180010f062f8030023703e
:10597c007b195a887b195a80bb191b785bb2002b98
:10598c000ad0894b1b68002b00d178e1864b1b6831
:10599c00874a1000984772e108203b185b882c213d
:1059ac007a1812889a4220d07b181b883a18528891
:1059bc009b1a042b19dd7c4b1b68002b0fd07a4be8
:1059cc001c687b1819883b185b881a003b181b78dd
:1059dc001d003b185b78774800932b00a0472f23c2
:1059ec00fb18fa221a70c0464ee16b4bfb6101208a
:1059fc0019f089f90300bb61fb691b780133dab23a
:105a0c00fb691a70bb691900012018f033fe0822db
:105a1c00bb181b78012b1bd1614bdb68002b0cd006
:105a2c005f4bdb681100ba1850787a185288083a24
:105a3c0091b27a6808329847d6e05b4b1b68002b12
:105a4c0000d1d1e0584b1b685b4a10009847cbe063
:105a5c000822bb181b78022b1bd1514b1b69002b46
:105a6c000cd04f4b1b691100ba1850787a18528819
:105a7c00083a91b27a6808329847b5e04a4b1b68ed
:105a8c00002b00d1b0e0484b1b684c4a10009847e3
:105a9c00aae00822bb181b78042b1bd1404b5b6976
:105aac00002b0cd03e4b5b691100ba1850787a1859
:105abc005288083a91b27a680832984794e03a4b87
:105acc001b68002b00d18fe0374b1b683c4a100041
:105adc00984789e00822bb181b78062b1bd1304b4a
:105aec001b6a002b0cd02e4b1b6a1100ba18507875
:105afc007a185288083a91b27a680832984773e05b
:105b0c00294b1b68002b00d16ee0274b1b682d4adc
:105b1c001000984768e00822bb181b78072b1ad195
:105b2c001f4b9b69002b0cd01d4b9b691100ba18a5
:105b3c0050787a185288083a91b27a6808329847a5
:105b4c0052e0194b1b68002b4ed0174b1b681e4a9a
:105b5c001000984748e00822bb181b78052b37d15a
:105b6c000f4b5b6a002b0cd00d4b5b6a1100ba1803
:105b7c0050787a185288083a91b27a680832984765
:105b8c0032e0094b1b68002b2ed0074b1b680f4ac9
:105b9c001000984728e0c046c21e0020701000007c
:105bac005c1a002084100000101e0020e46c02001f
:105bbc000c6d0200286d0200686d02008c6d0200f5
:105bcc00b06d0200d46d0200f86d02001c6e020074
:105bdc003a4b1b68002b04d0384b1b68384a10001a
:105bec00984706235b4265e0364b9b78dbb2002b73
:105bfc001cd0324b1b68002b09d0304b1b68082083
:105c0c003a18127811003a1852782f4898472f25d5
:105c1c007c1915f0adf8030023707b191b785bb26f
:105c2c00002b03d07b191b785bb243e0002341e0cf
:105c3c00224b1b68002b04d0204b1b68234a1000fe
:105c4c0098472f23fb18fe221a701de01b4b1b6874
:105c5c00002b16d0194b1b68f9681d4a1000984789
:105c6c000fe0164b1b68002b0dd0144b1b68194a08
:105c7c001000984707e0c04606e0c04604e0c04666
:105c8c0002e0c04600e0c046134b7b61012019f0d6
:105c9c003af803003b617b691b780133dab27b690c
:105cac001a703b691900012018f0e4fc2f23fb1833
:105cbc001b785bb21800bd460db0f0bd101e002065
:105ccc00406e02005c1a00205c6e02008c6e0200ba
:0c5cdc00a06e0200bc6e0200c21e002080
:020000040000fa
:020000040002f8
:105ce800f0b591b000af040008003a601900fb1d40
:105cf800221c1a70bb1d021c1a703b1d0a1c1a803c
:105d08003f23fb18ff221a70c046d24bbb633623d1
:105d1800fb18012252421a80012018f0f6ff0300f6
:105d28003b63bb6b1b78002b0cd0bb6b1b78013b18
:105d3800dab2bb6b1a703b6b1900012018f09cfc9f
:105d4800012305e03b6b1900012018f095fc0023a6
:105d5800002bdad0bb1d1b787f221340dab21c203f
:105d68003b185a703b18fa1d12781a703b18082213
:105d78005a80bb6d002b13d03b185a885823082132
:105d88007918c91854230824a446bc4463440988d4
:105d98001b88cb189bb2d3189ab23b185a8008e0dc
:105da8001c217b185a883b1d1b88d3189ab27b1874
:105db8005a801c26bb195b88a74a934200d936e152
:105dc8003f257c1914f0d2fa0300237029007b18b0
:105dd8001b785bb2002b00d01fe100237b611223ec
:105de800fb1800221a800023bb61fb1d1a78bb69cf
:105df8001343bb61bb1d1b781a02bb691343bb610c
:105e0800bb195b881a04bb691343bb61bb690d00ee
:105e18007c18924a1900100019f0dcf9030023706d
:105e280029007b181b785bb2002b00d044e10023cb
:105e3800bb61bb6902221343bb61bb690d007c18bf
:105e4800874a1900100019f0c5f9030023707b195f
:105e58001b785bb2002b00d030e100237b6112235a
:105e6800fb1800221a8049e03f257c191823fb18eb
:105e78007b4a1900100019f09df9030023707b1963
:105e88001b785bb2002b41d112217b181b889ab278
:105e9800f423ff339a4212d97b181b889ab2fa234b
:105ea8005b009a4208d86f4b1b68002b04d06d4bdf
:105eb8001b686d4a10009847012019f03bfdbb692b
:105ec8000222134012d13f257c191423fb18674a7c
:105ed8001900100019f06ef9030023707b191b7864
:105ee8005bb2002b14d000237b61eee012217b18fb
:105ef8001b889bb201339ab27b181a801223fb18b5
:105f08001b889bb25a4a9342aed902e0c04600e0d1
:105f1800c0467b69002b00d175e07b69fb601c21c2
:105f28007b185a887b185a80fb683f257c1979189a
:105f3800082218000ff0dcfd0300237029007b18ed
:105f48001b785bb2002b00d0bae0fb680833fb601b
:105f58003b68002b15d0f8683b1d1a880d007c188b
:105f68003b6819000ff0c4fd030023707b191b78f0
:105f78005bb2002b00d0a5e03b1d1a88fb68d31844
:105f8800fb60bb6d002b27d0582308229446bc44e5
:105f980063441a883b1d1b88d31a1a00fb68d31860
:105fa800fb60f86854250823fa1853191a883f2605
:105fb800bc19bb6d19000ff09bfd03002370bb19c2
:105fc8001b785bb2002b00d07ee00823fb185b191e
:105fd8001a88fb68d318fb607b699b00bb61bb69af
:105fe80002221343bb61bb693f257c19214a190072
:105ff800100019f0eff8030023707b191b785bb2cf
:10600800002b3dd061e03f257c1915f0d5fd03003c
:1060180023707b19fd221a705be0124b1b68002b62
:1060280056d0104b1b68144a1000984750e00d4b8f
:106038001b68002b08d00b4b1b681c22ba1852880f
:106048001100054a0d4898473f23fb18ff221a7094
:106058003fe0c046c21e00203c0600008c10000035
:1060680078100000101e0020786c02000004150053
:10607800e70300006c1000008c6c0200b06c02009a
:106088003f257c1915f098fd030023701e4bfb6219
:10609800012018f03afe0300bb62fb6a1b7801334b
:1060a800dab2fb6a1a70bb6a1900012018f0e4fa28
:1060b8007b191b785bb222e0c04606e0c04604e0cc
:1060c800c04602e0c04600e0c04618f057fd00e0b8
:1060d800c0460d4b7b62012018f017fe03003b629f
:1060e8007b6a1b780133dab27b6a1a703b6a190043
:1060f800012018f0c1fa3f23fb181b785bb2180087
:0c610800bd4611b0f0bdc046c21e002014
:020000040000fa
:020000040002f8
:10611400b0b590b000af78607b681b68bb617b68ea
:106124005b687b61bb69db687a6910009847031e72
:1061340000d1d6e1bb691b6913257c197a6910006b
:106144009847030023707b6810229b5e002b00d1cc
:106154006ee07b6810229b5e1a007b689b187a199c
:1061640012789a747b6810229b5e9bb201339bb2b7
:106174001ab27b681a827b6810229b5e032b2fd194
:106184007b6810229b5e1a007b689b1800229a741d
:10619400d74bbb6300237b630023fb6313e07b6863
:1061a40012331800bb6b1b680322190018f080fe21
:1061b400031e02d1bb6b7b6308e0fb6b0133fb6303
:1061c400bb6b0c33bb63fb6b052be8d97b6b002be0
:1061d40003d17b6800221a8286e17b687a6bda60dd
:1061e4007b6810229b5e022b00dc7ce17b68102222
:1061f4009b5e1a007b68db689b689a4200d072e160
:106204007b6812331a007b68db681b681900100076
:1062140019f0d0fc031e07d17b68db685a687b68e1
:10622400d9687b68180090477b6800221a825be17a
:106234001322bb181b780d2b03d0bb181b780a2b19
:106244002ad17b68da697b6820339a4206d1bb691c
:106254001b68a8497a691000984745e1bb691b6827
:10626400a5497a69100098477b68db6900221a7097
:106274007b6820331a007b68da617b68da697b68a3
:106284009a617b68180004f01dfdbb691b689b497b
:106294007a691000984727e11323fb181b78082b11
:1062a4005bd17b689a697b6820339a4200d81be1f2
:1062b4007b68da697b689b699a423dd97b689b69f4
:1062c4003b637b689b69013bfb627b68da693b6be0
:1062d400d31afb600023fb630ae03a6b531c3b6355
:1062e400fb6a591cf96212781a70fb6b0133fb6369
:1062f400fa6bfb689a42f0db7b689b695a1e7b68e9
:106304009a617b68db695a1e7b68da617b68db69aa
:1063140000221a707b68713318007b689a69fb68e5
:10632400774919f03cfcbb691b687a68713211002b
:106334007a6910009847d7e0bb691b6871497a698c
:10634400100098477b689b695a1e7b689a617b683a
:10635400db695a1e7b68da61c6e01323fb181b78dd
:106364007f2b3fd17b68da697b689b699a4200d8ae
:10637400bae07b689b690133bb627b689b697b6283
:106384007b68da69bb6ad31afb600023fb630ae00b
:10639400ba6a531cbb627b6a591c796212781a7000
:1063a400fb6b0133fb63fa6bfb689a42f0db7b689f
:1063b400db695a1e7b68da617b68db6900221a702c
:1063c4007b68713318007b689a69fb684e4919f041
:1063d400e6fbbb691b687a68713211007a691000a8
:1063e400984781e01322bb181b781b2b07d17b68cd
:1063f400ba1812789a747b6801221a8274e07b6856
:10640400da697b682033d31a4f2b54d87b68da6956
:106414007b689b69d31abb60bb68002b2cd07b685c
:10642400db69013b3b627b68db69fb610023fb6347
:106434000ae03a6a531e3b62fb69591ef9611278fd
:106444001a70fb6b0133fb63fa6bbb689a42f0db97
:106454007b68db695a1c7b68da617b68db69002234
:106464001a707b687133581c7b689b695a1cbb6823
:10647400264919f094fb03e07b68722200219954a9
:106484007b6813243a19712112785a54bb691b682a
:106494007a68713211007a69100098477b689b69a9
:1064a400591c7a6891613a1912781a707b6818003d
:1064b40018f0b4fd18e0bb691b6815497a6910002f
:1064c40098477b6820331a007b68da617b68da6955
:1064d4007b689a61bb691b6808497a691000984710
:1064e40002e0c04600e0c046bd4610b0b0bdc046a4
:1064f4007ccc030020970200249702002897020016
:106504002c97020038970200409702004c97020033
:046514005497020096
:020000040000fa
:020000040002f8
:106518000d0a000025730000253032582000c046bf
:10652800253032580000c0460d00c0462e2e2f736d
:1065380072632f636f6e6669672f53414d44323122
:106548005f57475f494f542f6c6962726172792fa8
:1065580063727970746f617574686c69622f6174a5
:1065680063615f68656c706572732e633a353931a3
:106578003a25783a426173653634206368617273ec
:1065880020616674657220656e6420706164646958
:106598006e670a002e2e2f7372632f636f6e666903
:1065a800672f53414d4432315f57475f494f542f4e
:1065b8006c6962726172792f63727970746f617538
:1065c80074686c69622f617463615f68656c70657b
:1065d80072732e633a3631303a25783a6465636fc0
:1065e8006465642062756666657220746f6f2073d7
:1065f8006d616c6c0a00c0462e2e2f7372632f6378
:106608006f6e6669672f53414d4432315f57475f5c
:10661800494f542f6c6962726172792f6372797075
:10662800746f617574686c69622f617463615f6807
:10663800656c706572732e633a3635363a25783a4a
:106648004e756c6c20696e70757420706172616d26
:10665800657465720a00c0462e2e2f7372632f630d
:106668006f6e6669672f53414d4432315f57475ffc
:10667800494f542f6c6962726172792f6372797015
:10668800746f617574686c69622f617463615f68a7
:10669800656c706572732e633a3637313a25783aed
:1066a800496e76616c696420626173653634206373
:1066b80068617261637465720a00c0462e2e2f737a
:1066c80072632f636f6e6669672f53414d44323191
:1066d8005f57475f494f542f6c6962726172792f17
:1066e80063727970746f617574686c69622f617414
:1066f80063615f68656c706572732e633a3637380c
:106708003a25783a4261736536342063686172735a
:1067180020616674657220656e64207061646469c6
:106728006e670a002e2e2f7372632f636f6e666971
:10673800672f53414d4432315f57475f494f542fbc
:106748006c6962726172792f63727970746f6175a6
:1067580074686c69622f617463615f68656c7065e9
:1067680072732e633a3730333a25783a496e766138
:106778006c6964206e756d626572206f6620626157
:10678800736536342063686172730a002e2e2f7386
:1067980072632f636f6e6669672f53414d443231c0
:1067a8005f57475f494f542f6c6962726172792f46
:1067b80063727970746f617574686c69622f617443
:1067c80063615f68656c706572732e633a37343045
:1067d8003a25783a4e756c6c20696e707574207025
:1067e8006172616d657465720a00c0462e2e2f7342
:1067f80072632f636f6e6669672f53414d44323160
:106808005f57475f494f542f6c6962726172792fe5
:1068180063727970746f617574686c69622f6174e2
:1068280063615f68656c706572732e633a373531e2
:106838003a25783a6e65776c696e652072756c6575
:10684800735b335d206d757374206265206d756ca4
:106858007469706c65206f6620340a002e2e2f73c1
:1068680072632f636f6e6669672f53414d443231ef
:106878005f57475f494f542f6c6962726172792f75
:1068880063727970746f617574686c69622f617472
:1068980063615f68656c706572732e633a3735396a
:1068a8003a25783a4c656e677468206f6620656e85
:1068b800636f6465642062756666657220746f6fc5
:1068c80020736d616c6c0a002e2e2f7372632f6318
:1068d8006f6e6669672f53414d4432315f57475f8a
:1068e800494f542f6c6962726172792f63727970a3
:1068f800746f617574686c69622f63616c69622f6b
:1069080063616c69625f7369676e2e633a35373a03
:1069180025783a4e554c4c20706f696e746572201c
:1069280072656365697665640a00c0462e2e2f730a
:1069380072632f636f6e6669672f53414d4432311e
:106948005f57475f494f542f6c6962726172792fa4
:1069580063727970746f617574686c69622f6361b2
:106968006c69622f63616c69625f7369676e2e631d
:106978003a36373a25783a61745369676e202d2084
:106988006661696c65640a002e2e2f7372632f632b
:106998006f6e6669672f53414d4432315f57475fc9
:1069a800494f542f6c6962726172792f63727970e2
:1069b800746f617574686c69622f63616c69622faa
:1069c80063616c69625f7369676e2e633a37333a45
:1069d80025783a63616c69625f7369676e5f6261ab
:1069e8007365202d20657865637574696f6e206600
:1069f80061696c65640a00002e2e2f7372632f6321
:106a08006f6e6669672f53414d4432315f57475f58
:106a1800494f542f6c6962726172792f6372797071
:106a2800746f617574686c69622f63616c69622f39
:106a380063616c69625f7369676e2e633a313232e3
:106a48003a25783a63616c69625f72616e646f6d52
:106a5800202d206661696c65640a00002e2e2f7354
:106a680072632f636f6e6669672f53414d443231ed
:106a78005f57475f494f542f6c6962726172792f73
:106a880063727970746f617574686c69622f636181
:106a98006c69622f63616c69625f7369676e2e63ec
:106aa8003a3133353a25783a63616c69625f6e6fc3
:106ab8006e63655f6c6f6164202d206661696c652b
:106ac800640a00002e2e2f7372632f636f6e66693f
:106ad800672f53414d4432315f57475f494f542f19
:106ae8006c6962726172792f63727970746f617503
:106af80074686c69622f63616c69622f63616c6989
:106b0800625f7369676e2e633a3134323a25783a98
:106b180063616c69625f7369676e5f626173652048
:106b28002d206661696c65640a00c0462e2e2f739d
:106b380072632f636f6e6669672f53414d4432311c
:106b48005f57475f494f542f6c6962726172792fa2
:106b580063727970746f617574686c69622f6361b0
:106b68006c69622f63616c69625f7369676e2e631b
:106b78003a3138373a25783a63616c69625f7369ec
:106b8800676e5f62617365202d206661696c65645c
:106b98000a00c0462e2e2f7372632f636f6e6669cc
:106ba800672f53414d4432315f57475f494f542f48
:106bb8006c6962726172792f63727970746f617532
:106bc80074686c69622f63616c69622f63616c69b8
:106bd800625f7369676e2e633a3231393a25783ac3
:106be8004e554c4c20706f696e74657220656e63eb
:106bf8006f756e74657265640a00c0462e2e2f7319
:106c080072632f636f6e6669672f53414d4432314b
:106c18005f57475f494f542f6c6962726172792fd1
:106c280063727970746f617574686c69622f6361df
:106c38006c69622f63616c69625f7369676e2e634a
:106c48003a3233313a25783a63616c69625f656339
:106c5800633230345f7369676e202d206578656311
:106c68007574696f6e206661696c65640a00c04658
:106c7800536c6f77696e6720646f776e2e2e2e0dba
:106c88000a00c04628484946294661696c6564205f
:106c9800746f2077616b6575702074686520636810
:106ca80069700d0a0000c046484946206d65737337
:106cb800616765206c656e677468202825642920e3
:106cc80065786365656473206d6178206c656e67af
:106cd800746820282564290d0a00c046286869665a
:106ce8002920574946495f484f53545f5243565fde
:106cf8004354524c5f3120627573206661696c0d94
:106d08000a00c04628686966292061646472657350
:106d18007320627573206661696c0d0a0000c046b5
:106d2800286869662920436f7272757074656420db
:106d38007061636b65742053697a65203d20257501
:106d4800203c4c203d2025752c2047203d202575d2
:106d58002c204f50203d20253032583e0d0a00008f
:106d6800574946492063616c6c6261636b206973a3
:106d7800206e6f7420726567697374657265640d3f
:106d88000a00c046536f636b65742063616c6c6264
:106d980061636b206973206e6f7420726567697315
:106da80074657265640d0a004f74612063616c6cd0
:106db8006261636b206973206e6f74207265676906
:106dc8007374657265640d0a0000c0464372797079
:106dd800746f2063616c6c6261636b206973206ef1
:106de8006f7420726567697374657265640d0a0053
:106df8005369676d612063616c6c6261636b2069c4
:106e080073206e6f74207265676973746572656448
:106e18000d0a000053534c2063616c6c6261636b14
:106e2800206973206e6f7420726567697374657268
:106e380065640d0a0000c046286869662920696ee5
:106e480076616c69642067726f75702049440d0a19
:106e58000000c046286869662920686f737420613d
:106e68007070206469646e277420736574205258aa
:106e780020446f6e65203c25753e3c25583e0d0a22
:106e88000000c04628686966292057726f6e67201f
:106e980073697a650d0a00002868696629204661c9
:106ea8006c736520696e7465727275707420256cd8
:106eb800780d0a002868696629204661696c65644e
:106ec80020746f207265616420696e7465727275d2
